{
  "_format": "hh-sol-artifact-1",
  "contractName": "CrowdFunding",
  "sourceName": "contracts/CrowdFunding.sol",
  "abi": [
    {
      "inputs": [
        {
          "internalType": "uint256",
          "name": "",
          "type": "uint256"
        }
      ],
      "name": "campaigns",
      "outputs": [
        {
          "internalType": "address",
          "name": "owner",
          "type": "address"
        },
        {
          "internalType": "string",
          "name": "title",
          "type": "string"
        },
        {
          "internalType": "string",
          "name": "description",
          "type": "string"
        },
        {
          "internalType": "uint256",
          "name": "target",
          "type": "uint256"
        },
        {
          "internalType": "uint256",
          "name": "deadline",
          "type": "uint256"
        },
        {
          "internalType": "uint256",
          "name": "amountCollected",
          "type": "uint256"
        }
      ],
      "stateMutability": "view",
      "type": "function"
    },
    {
      "inputs": [
        {
          "internalType": "address",
          "name": "_owner",
          "type": "address"
        },
        {
          "internalType": "string",
          "name": "_title",
          "type": "string"
        },
        {
          "internalType": "string",
          "name": "_description",
          "type": "string"
        },
        {
          "internalType": "uint256",
          "name": "_target",
          "type": "uint256"
        },
        {
          "internalType": "uint256",
          "name": "_deadline",
          "type": "uint256"
        }
      ],
      "name": "createCampaign",
      "outputs": [
        {
          "internalType": "uint256",
          "name": "",
          "type": "uint256"
        }
      ],
      "stateMutability": "nonpayable",
      "type": "function"
    },
    {
      "inputs": [
        {
          "internalType": "uint256",
          "name": "_id",
          "type": "uint256"
        }
      ],
      "name": "donateToCampaign",
      "outputs": [],
      "stateMutability": "payable",
      "type": "function"
    },
    {
      "inputs": [],
      "name": "getCampaigns",
      "outputs": [
        {
          "components": [
            {
              "internalType": "address",
              "name": "owner",
              "type": "address"
            },
            {
              "internalType": "string",
              "name": "title",
              "type": "string"
            },
            {
              "internalType": "string",
              "name": "description",
              "type": "string"
            },
            {
              "internalType": "uint256",
              "name": "target",
              "type": "uint256"
            },
            {
              "internalType": "uint256",
              "name": "deadline",
              "type": "uint256"
            },
            {
              "internalType": "uint256",
              "name": "amountCollected",
              "type": "uint256"
            },
            {
              "internalType": "address[]",
              "name": "donators",
              "type": "address[]"
            },
            {
              "internalType": "uint256[]",
              "name": "donations",
              "type": "uint256[]"
            }
          ],
          "internalType": "struct CrowdFunding.Campaign[]",
          "name": "",
          "type": "tuple[]"
        }
      ],
      "stateMutability": "view",
      "type": "function"
    },
    {
      "inputs": [
        {
          "internalType": "uint256",
          "name": "_id",
          "type": "uint256"
        }
      ],
      "name": "getDonators",
      "outputs": [
        {
          "internalType": "address[]",
          "name": "",
          "type": "address[]"
        },
        {
          "internalType": "uint256[]",
          "name": "",
          "type": "uint256[]"
        }
      ],
      "stateMutability": "view",
      "type": "function"
    },
    {
      "inputs": [],
      "name": "numberOfCampaigns",
      "outputs": [
        {
          "internalType": "uint256",
          "name": "",
          "type": "uint256"
        }
      ],
      "stateMutability": "view",
      "type": "function"
    }
  ],
  "bytecode": "0x60806040526000600155348015601457600080fd5b50611792806100246000396000f3fe6080604052600436106100555760003560e01c8063075843c31461005a57806307ca140d146100975780630fa91fa9146100c2578063141961bc1461010057806342a4fda814610142578063a6b036331461015e575b600080fd5b34801561006657600080fd5b50610081600480360381019061007c9190610c0d565b610189565b60405161008e9190610ccf565b60405180910390f35b3480156100a357600080fd5b506100ac61029d565b6040516100b99190610ccf565b60405180910390f35b3480156100ce57600080fd5b506100e960048036038101906100e49190610cea565b6102a3565b6040516100f7929190610e93565b60405180910390f35b34801561010c57600080fd5b5061012760048036038101906101229190610cea565b6103b3565b60405161013996959493929190610f58565b60405180910390f35b61015c60048036038101906101579190610cea565b61051f565b005b34801561016a57600080fd5b5061017361067f565b6040516101809190611276565b60405180910390f35b60008060008060015481526020019081526020016000209050428160040154106101e8576040517f08c379a00000000000000000000000000000000000000000000000000000000081526004016101df9061130a565b60405180910390fd5b868160000160006101000a81548173ffffffffffffffffffffffffffffffffffffffff021916908373ffffffffffffffffffffffffffffffffffffffff1602179055508581600101908161023c9190611536565b508481600201908161024e9190611536565b50838160030181905550828160040181905550600081600501819055506001600081548092919061027e90611637565b919050555060018054610291919061167f565b91505095945050505050565b60015481565b6060806000808481526020019081526020016000206006016000808581526020019081526020016000206007018180548060200260200160405190810160405280929190818152602001828054801561035157602002820191906000526020600020905b8160009054906101000a900473ffffffffffffffffffffffffffffffffffffffff1673ffffffffffffffffffffffffffffffffffffffff1681526020019060010190808311610307575b50505050509150808054806020026020016040519081016040528092919081815260200182805480156103a357602002820191906000526020600020905b81548152602001906001019080831161038f575b5050505050905091509150915091565b60006020528060005260406000206000915090508060000160009054906101000a900473ffffffffffffffffffffffffffffffffffffffff16908060010180546103fc90611359565b80601f016020809104026020016040519081016040528092919081815260200182805461042890611359565b80156104755780601f1061044a57610100808354040283529160200191610475565b820191906000526020600020905b81548152906001019060200180831161045857829003601f168201915b50505050509080600201805461048a90611359565b80601f01602080910402602001604051908101604052809291908181526020018280546104b690611359565b80156105035780601f106104d857610100808354040283529160200191610503565b820191906000526020600020905b8154815290600101906020018083116104e657829003601f168201915b5050505050908060030154908060040154908060050154905086565b60003490506000806000848152602001908152602001600020905080600601339080600181540180825580915050600190039060005260206000200160009091909190916101000a81548173ffffffffffffffffffffffffffffffffffffffff021916908373ffffffffffffffffffffffffffffffffffffffff1602179055508060070182908060018154018082558091505060019003906000526020600020016000909190919091505560008160000160009054906101000a900473ffffffffffffffffffffffffffffffffffffffff1673ffffffffffffffffffffffffffffffffffffffff1683604051610614906116e4565b60006040518083038185875af1925050503d8060008114610651576040519150601f19603f3d011682016040523d82523d6000602084013e610656565b606091505b5050905080156106795782826005015461067091906116f9565b82600501819055505b50505050565b6060600060015467ffffffffffffffff81111561069f5761069e610aac565b5b6040519080825280602002602001820160405280156106d857816020015b6106c56109c4565b8152602001906001900390816106bd5790505b50905060005b600154600110156109bc576000806000838152602001908152602001600020905080604051806101000160405290816000820160009054906101000a900473ffffffffffffffffffffffffffffffffffffffff1673ffffffffffffffffffffffffffffffffffffffff1673ffffffffffffffffffffffffffffffffffffffff16815260200160018201805461077290611359565b80601f016020809104026020016040519081016040528092919081815260200182805461079e90611359565b80156107eb5780601f106107c0576101008083540402835291602001916107eb565b820191906000526020600020905b8154815290600101906020018083116107ce57829003601f168201915b5050505050815260200160028201805461080490611359565b80601f016020809104026020016040519081016040528092919081815260200182805461083090611359565b801561087d5780601f106108525761010080835404028352916020019161087d565b820191906000526020600020905b81548152906001019060200180831161086057829003601f168201915b505050505081526020016003820154815260200160048201548152602001600582015481526020016006820180548060200260200160405190810160405280929190818152602001828054801561092957602002820191906000526020600020905b8160009054906101000a900473ffffffffffffffffffffffffffffffffffffffff1673ffffffffffffffffffffffffffffffffffffffff16815260200190600101908083116108df575b505050505081526020016007820180548060200260200160405190810160405280929190818152602001828054801561098157602002820191906000526020600020905b81548152602001906001019080831161096d575b50505050508152505083838151811061099d5761099c61172d565b5b60200260200101819052505080806109b490611637565b9150506106de565b508091505090565b604051806101000160405280600073ffffffffffffffffffffffffffffffffffffffff168152602001606081526020016060815260200160008152602001600081526020016000815260200160608152602001606081525090565b6000604051905090565b600080fd5b600080fd5b600073ffffffffffffffffffffffffffffffffffffffff82169050919050565b6000610a5e82610a33565b9050919050565b610a6e81610a53565b8114610a7957600080fd5b50565b600081359050610a8b81610a65565b92915050565b600080fd5b600080fd5b6000601f19601f8301169050919050565b7f4e487b7100000000000000000000000000000000000000000000000000000000600052604160045260246000fd5b610ae482610a9b565b810181811067ffffffffffffffff82111715610b0357610b02610aac565b5b80604052505050565b6000610b16610a1f565b9050610b228282610adb565b919050565b600067ffffffffffffffff821115610b4257610b41610aac565b5b610b4b82610a9b565b9050602081019050919050565b82818337600083830152505050565b6000610b7a610b7584610b27565b610b0c565b905082815260208101848484011115610b9657610b95610a96565b5b610ba1848285610b58565b509392505050565b600082601f830112610bbe57610bbd610a91565b5b8135610bce848260208601610b67565b91505092915050565b6000819050919050565b610bea81610bd7565b8114610bf557600080fd5b50565b600081359050610c0781610be1565b92915050565b600080600080600060a08688031215610c2957610c28610a29565b5b6000610c3788828901610a7c565b955050602086013567ffffffffffffffff811115610c5857610c57610a2e565b5b610c6488828901610ba9565b945050604086013567ffffffffffffffff811115610c8557610c84610a2e565b5b610c9188828901610ba9565b9350506060610ca288828901610bf8565b9250506080610cb388828901610bf8565b9150509295509295909350565b610cc981610bd7565b82525050565b6000602082019050610ce46000830184610cc0565b92915050565b600060208284031215610d0057610cff610a29565b5b6000610d0e84828501610bf8565b91505092915050565b600081519050919050565b600082825260208201905092915050565b6000819050602082019050919050565b610d4c81610a53565b82525050565b6000610d5e8383610d43565b60208301905092915050565b6000602082019050919050565b6000610d8282610d17565b610d8c8185610d22565b9350610d9783610d33565b8060005b83811015610dc8578151610daf8882610d52565b9750610dba83610d6a565b925050600181019050610d9b565b5085935050505092915050565b600081519050919050565b600082825260208201905092915050565b6000819050602082019050919050565b610e0a81610bd7565b82525050565b6000610e1c8383610e01565b60208301905092915050565b6000602082019050919050565b6000610e4082610dd5565b610e4a8185610de0565b9350610e5583610df1565b8060005b83811015610e86578151610e6d8882610e10565b9750610e7883610e28565b925050600181019050610e59565b5085935050505092915050565b60006040820190508181036000830152610ead8185610d77565b90508181036020830152610ec18184610e35565b90509392505050565b610ed381610a53565b82525050565b600081519050919050565b600082825260208201905092915050565b60005b83811015610f13578082015181840152602081019050610ef8565b60008484015250505050565b6000610f2a82610ed9565b610f348185610ee4565b9350610f44818560208601610ef5565b610f4d81610a9b565b840191505092915050565b600060c082019050610f6d6000830189610eca565b8181036020830152610f7f8188610f1f565b90508181036040830152610f938187610f1f565b9050610fa26060830186610cc0565b610faf6080830185610cc0565b610fbc60a0830184610cc0565b979650505050505050565b600081519050919050565b600082825260208201905092915050565b6000819050602082019050919050565b600082825260208201905092915050565b600061100f82610ed9565b6110198185610ff3565b9350611029818560208601610ef5565b61103281610a9b565b840191505092915050565b600082825260208201905092915050565b600061105982610d17565b611063818561103d565b935061106e83610d33565b8060005b8381101561109f5781516110868882610d52565b975061109183610d6a565b925050600181019050611072565b5085935050505092915050565b600082825260208201905092915050565b60006110c882610dd5565b6110d281856110ac565b93506110dd83610df1565b8060005b8381101561110e5781516110f58882610e10565b975061110083610e28565b9250506001810190506110e1565b5085935050505092915050565b6000610100830160008301516111346000860182610d43565b506020830151848203602086015261114c8282611004565b915050604083015184820360408601526111668282611004565b915050606083015161117b6060860182610e01565b50608083015161118e6080860182610e01565b5060a08301516111a160a0860182610e01565b5060c083015184820360c08601526111b9828261104e565b91505060e083015184820360e08601526111d382826110bd565b9150508091505092915050565b60006111ec838361111b565b905092915050565b6000602082019050919050565b600061120c82610fc7565b6112168185610fd2565b93508360208202850161122885610fe3565b8060005b85811015611264578484038952815161124585826111e0565b9450611250836111f4565b925060208a0199505060018101905061122c565b50829750879550505050505092915050565b600060208201905081810360008301526112908184611201565b905092915050565b7f74686520646561646c696e652073686f756c642062652073657420746865206660008201527f75747572652061732074686973206461746520686173207061737365642e2000602082015250565b60006112f4603f83610ee4565b91506112ff82611298565b604082019050919050565b60006020820190508181036000830152611323816112e7565b9050919050565b7f4e487b7100000000000000000000000000000000000000000000000000000000600052602260045260246000fd5b6000600282049050600182168061137157607f821691505b6020821081036113845761138361132a565b5b50919050565b60008190508160005260206000209050919050565b60006020601f8301049050919050565b600082821b905092915050565b6000600883026113ec7fffffffffffffffffffffffffffffffffffffffffffffffffffffffffffffffff826113af565b6113f686836113af565b95508019841693508086168417925050509392505050565b6000819050919050565b600061143361142e61142984610bd7565b61140e565b610bd7565b9050919050565b6000819050919050565b61144d83611418565b6114616114598261143a565b8484546113bc565b825550505050565b600090565b611476611469565b611481818484611444565b505050565b5b818110156114a55761149a60008261146e565b600181019050611487565b5050565b601f8211156114ea576114bb8161138a565b6114c48461139f565b810160208510156114d3578190505b6114e76114df8561139f565b830182611486565b50505b505050565b600082821c905092915050565b600061150d600019846008026114ef565b1980831691505092915050565b600061152683836114fc565b9150826002028217905092915050565b61153f82610ed9565b67ffffffffffffffff81111561155857611557610aac565b5b6115628254611359565b61156d8282856114a9565b600060209050601f8311600181146115a0576000841561158e578287015190505b611598858261151a565b865550611600565b601f1984166115ae8661138a565b60005b828110156115d6578489015182556001820191506020850194506020810190506115b1565b868310156115f357848901516115ef601f8916826114fc565b8355505b6001600288020188555050505b505050505050565b7f4e487b7100000000000000000000000000000000000000000000000000000000600052601160045260246000fd5b600061164282610bd7565b91507fffffffffffffffffffffffffffffffffffffffffffffffffffffffffffffffff820361167457611673611608565b5b600182019050919050565b600061168a82610bd7565b915061169583610bd7565b92508282039050818111156116ad576116ac611608565b5b92915050565b600081905092915050565b50565b60006116ce6000836116b3565b91506116d9826116be565b600082019050919050565b60006116ef826116c1565b9150819050919050565b600061170482610bd7565b915061170f83610bd7565b925082820190508082111561172757611726611608565b5b92915050565b7f4e487b7100000000000000000000000000000000000000000000000000000000600052603260045260246000fdfea264697066735822122011924835fd850392ddd6b24c18a5441b6f98903d18ab9d8867d971d8f2da304b64736f6c634300081c0033",
  "linkReferences": {},
  "deployedLinkReferences": {}
}