{
  "_format": "hh-sol-artifact-1",
  "contractName": "CrowdFunding",
  "sourceName": "contracts/CrowdFunding.sol",
  "abi": [
    {
      "inputs": [],
      "stateMutability": "nonpayable",
      "type": "constructor"
    },
    {
      "inputs": [],
      "name": "ReentrancyGuardReentrantCall",
      "type": "error"
    },
    {
      "anonymous": false,
      "inputs": [
        {
          "indexed": false,
          "internalType": "address",
          "name": "admin",
          "type": "address"
        },
        {
          "indexed": false,
          "internalType": "bool",
          "name": "status",
          "type": "bool"
        }
      ],
      "name": "AdminUpdated",
      "type": "event"
    },
    {
      "anonymous": false,
      "inputs": [
        {
          "indexed": false,
          "internalType": "uint256",
          "name": "id",
          "type": "uint256"
        },
        {
          "indexed": false,
          "internalType": "address",
          "name": "owner",
          "type": "address"
        },
        {
          "indexed": false,
          "internalType": "string",
          "name": "title",
          "type": "string"
        }
      ],
      "name": "CampaignCreated",
      "type": "event"
    },
    {
      "anonymous": false,
      "inputs": [
        {
          "indexed": false,
          "internalType": "uint256",
          "name": "campaignId",
          "type": "uint256"
        },
        {
          "indexed": false,
          "internalType": "address",
          "name": "donator",
          "type": "address"
        },
        {
          "indexed": false,
          "internalType": "uint256",
          "name": "amount",
          "type": "uint256"
        }
      ],
      "name": "DonationReceived",
      "type": "event"
    },
    {
      "anonymous": false,
      "inputs": [
        {
          "indexed": true,
          "internalType": "uint256",
          "name": "campaignId",
          "type": "uint256"
        },
        {
          "indexed": true,
          "internalType": "address",
          "name": "from",
          "type": "address"
        },
        {
          "indexed": true,
          "internalType": "address",
          "name": "to",
          "type": "address"
        },
        {
          "indexed": false,
          "internalType": "uint256",
          "name": "amount",
          "type": "uint256"
        },
        {
          "indexed": false,
          "internalType": "uint256",
          "name": "timestamp",
          "type": "uint256"
        }
      ],
      "name": "DonationTransferred",
      "type": "event"
    },
    {
      "inputs": [
        {
          "internalType": "uint256",
          "name": "",
          "type": "uint256"
        }
      ],
      "name": "campaigns",
      "outputs": [
        {
          "internalType": "address",
          "name": "owner",
          "type": "address"
        },
        {
          "internalType": "string",
          "name": "title",
          "type": "string"
        },
        {
          "internalType": "string",
          "name": "description",
          "type": "string"
        },
        {
          "internalType": "uint256",
          "name": "target",
          "type": "uint256"
        },
        {
          "internalType": "uint256",
          "name": "deadline",
          "type": "uint256"
        },
        {
          "internalType": "uint256",
          "name": "amountCollected",
          "type": "uint256"
        }
      ],
      "stateMutability": "view",
      "type": "function"
    },
    {
      "inputs": [],
      "name": "contractOwner",
      "outputs": [
        {
          "internalType": "address",
          "name": "",
          "type": "address"
        }
      ],
      "stateMutability": "view",
      "type": "function"
    },
    {
      "inputs": [
        {
          "internalType": "string",
          "name": "_title",
          "type": "string"
        },
        {
          "internalType": "string",
          "name": "_description",
          "type": "string"
        },
        {
          "internalType": "uint256",
          "name": "_target",
          "type": "uint256"
        },
        {
          "internalType": "uint256",
          "name": "_deadline",
          "type": "uint256"
        }
      ],
      "name": "createCampaign",
      "outputs": [
        {
          "internalType": "uint256",
          "name": "",
          "type": "uint256"
        }
      ],
      "stateMutability": "nonpayable",
      "type": "function"
    },
    {
      "inputs": [
        {
          "internalType": "address",
          "name": "_owner",
          "type": "address"
        },
        {
          "internalType": "string",
          "name": "_title",
          "type": "string"
        },
        {
          "internalType": "string",
          "name": "_description",
          "type": "string"
        },
        {
          "internalType": "uint256",
          "name": "_target",
          "type": "uint256"
        },
        {
          "internalType": "uint256",
          "name": "_deadline",
          "type": "uint256"
        }
      ],
      "name": "createCampaignForTest",
      "outputs": [
        {
          "internalType": "uint256",
          "name": "",
          "type": "uint256"
        }
      ],
      "stateMutability": "nonpayable",
      "type": "function"
    },
    {
      "inputs": [
        {
          "internalType": "uint256",
          "name": "_id",
          "type": "uint256"
        }
      ],
      "name": "deleteCampaign",
      "outputs": [],
      "stateMutability": "nonpayable",
      "type": "function"
    },
    {
      "inputs": [
        {
          "internalType": "uint256",
          "name": "_id",
          "type": "uint256"
        }
      ],
      "name": "donateToCampaign",
      "outputs": [],
      "stateMutability": "payable",
      "type": "function"
    },
    {
      "inputs": [],
      "name": "getCampaigns",
      "outputs": [
        {
          "components": [
            {
              "internalType": "address",
              "name": "owner",
              "type": "address"
            },
            {
              "internalType": "string",
              "name": "title",
              "type": "string"
            },
            {
              "internalType": "string",
              "name": "description",
              "type": "string"
            },
            {
              "internalType": "uint256",
              "name": "target",
              "type": "uint256"
            },
            {
              "internalType": "uint256",
              "name": "deadline",
              "type": "uint256"
            },
            {
              "internalType": "uint256",
              "name": "amountCollected",
              "type": "uint256"
            },
            {
              "internalType": "address[]",
              "name": "donators",
              "type": "address[]"
            },
            {
              "internalType": "uint256[]",
              "name": "donations",
              "type": "uint256[]"
            },
            {
              "internalType": "uint256[]",
              "name": "timestamps",
              "type": "uint256[]"
            }
          ],
          "internalType": "struct CrowdFunding.Campaign[]",
          "name": "",
          "type": "tuple[]"
        }
      ],
      "stateMutability": "view",
      "type": "function"
    },
    {
      "inputs": [
        {
          "internalType": "uint256",
          "name": "_id",
          "type": "uint256"
        }
      ],
      "name": "getDonators",
      "outputs": [
        {
          "internalType": "address[]",
          "name": "",
          "type": "address[]"
        },
        {
          "internalType": "uint256[]",
          "name": "",
          "type": "uint256[]"
        },
        {
          "internalType": "uint256[]",
          "name": "",
          "type": "uint256[]"
        }
      ],
      "stateMutability": "view",
      "type": "function"
    },
    {
      "inputs": [
        {
          "internalType": "address",
          "name": "",
          "type": "address"
        }
      ],
      "name": "isAdmin",
      "outputs": [
        {
          "internalType": "bool",
          "name": "",
          "type": "bool"
        }
      ],
      "stateMutability": "view",
      "type": "function"
    },
    {
      "inputs": [],
      "name": "numberOfCampaigns",
      "outputs": [
        {
          "internalType": "uint256",
          "name": "",
          "type": "uint256"
        }
      ],
      "stateMutability": "view",
      "type": "function"
    },
    {
      "inputs": [
        {
          "internalType": "address",
          "name": "_admin",
          "type": "address"
        },
        {
          "internalType": "bool",
          "name": "_status",
          "type": "bool"
        }
      ],
      "name": "setAdmin",
      "outputs": [],
      "stateMutability": "nonpayable",
      "type": "function"
    },
    {
      "inputs": [
        {
          "internalType": "uint256",
          "name": "_id",
          "type": "uint256"
        },
        {
          "internalType": "string",
          "name": "_title",
          "type": "string"
        },
        {
          "internalType": "string",
          "name": "_description",
          "type": "string"
        },
        {
          "internalType": "uint256",
          "name": "_target",
          "type": "uint256"
        }
      ],
      "name": "updateCampaign",
      "outputs": [],
      "stateMutability": "nonpayable",
      "type": "function"
    }
  ],
  "bytecode": "0x6080604052348015600f57600080fd5b50600160008190555033600160006101000a81548173ffffffffffffffffffffffffffffffffffffffff021916908373ffffffffffffffffffffffffffffffffffffffff1602179055506001600260003373ffffffffffffffffffffffffffffffffffffffff1673ffffffffffffffffffffffffffffffffffffffff16815260200190815260200160002060006101000a81548160ff021916908315150217905550612b0f806100c06000396000f3fe6080604052600436106100a75760003560e01c80634b0bddd2116100645780634b0bddd2146101da5780637597019314610203578063a318f2691461022c578063a6b0363314610269578063c811e60514610294578063ce606ee0146102d1576100a7565b806307ca140d146100ac5780630fa91fa9146100d7578063141961bc1461011657806324d7806c146101585780633b0ac8381461019557806342a4fda8146101be575b600080fd5b3480156100b857600080fd5b506100c16102fc565b6040516100ce91906117c7565b60405180910390f35b3480156100e357600080fd5b506100fe60048036038101906100f99190611822565b610302565b60405161010d939291906119fd565b60405180910390f35b34801561012257600080fd5b5061013d60048036038101906101389190611822565b610482565b60405161014f96959493929190611ae8565b60405180910390f35b34801561016457600080fd5b5061017f600480360381019061017a9190611b83565b6105ee565b60405161018c9190611bcb565b60405180910390f35b3480156101a157600080fd5b506101bc60048036038101906101b79190611d1b565b61060e565b005b6101d860048036038101906101d39190611822565b61076c565b005b3480156101e657600080fd5b5061020160048036038101906101fc9190611de6565b610ad2565b005b34801561020f57600080fd5b5061022a60048036038101906102259190611822565b610bf6565b005b34801561023857600080fd5b50610253600480360381019061024e9190611e26565b610d6e565b60405161026091906117c7565b60405180910390f35b34801561027557600080fd5b5061027e610f82565b60405161028b9190612190565b60405180910390f35b3480156102a057600080fd5b506102bb60048036038101906102b691906121b2565b611422565b6040516102c891906117c7565b60405180910390f35b3480156102dd57600080fd5b506102e6611637565b6040516102f39190612265565b60405180910390f35b60045481565b6060806060600360008581526020019081526020016000206006016003600086815260200190815260200160002060070160036000878152602001908152602001600020600801828054806020026020016040519081016040528092919081815260200182805480156103ca57602002820191906000526020600020905b8160009054906101000a900473ffffffffffffffffffffffffffffffffffffffff1673ffffffffffffffffffffffffffffffffffffffff1681526020019060010190808311610380575b505050505092508180548060200260200160405190810160405280929190818152602001828054801561041c57602002820191906000526020600020905b815481526020019060010190808311610408575b505050505091508080548060200260200160405190810160405280929190818152602001828054801561046e57602002820191906000526020600020905b81548152602001906001019080831161045a575b505050505090509250925092509193909250565b60036020528060005260406000206000915090508060000160009054906101000a900473ffffffffffffffffffffffffffffffffffffffff16908060010180546104cb906122af565b80601f01602080910402602001604051908101604052809291908181526020018280546104f7906122af565b80156105445780601f1061051957610100808354040283529160200191610544565b820191906000526020600020905b81548152906001019060200180831161052757829003601f168201915b505050505090806002018054610559906122af565b80601f0160208091040260200160405190810160405280929190818152602001828054610585906122af565b80156105d25780601f106105a7576101008083540402835291602001916105d2565b820191906000526020600020905b8154815290600101906020018083116105b557829003601f168201915b5050505050908060030154908060040154908060050154905086565b60026020528060005260406000206000915054906101000a900460ff1681565b600260003373ffffffffffffffffffffffffffffffffffffffff1673ffffffffffffffffffffffffffffffffffffffff16815260200190815260200160002060009054906101000a900460ff1661069a576040517f08c379a00000000000000000000000000000000000000000000000000000000081526004016106919061232c565b60405180910390fd5b60045484106106de576040517f08c379a00000000000000000000000000000000000000000000000000000000081526004016106d590612398565b60405180910390fd5b60008111610721576040517f08c379a000000000000000000000000000000000000000000000000000000000815260040161071890612404565b60405180910390fd5b60006003600086815260200190815260200160002090508381600101908161074991906125d0565b508281600201908161075b91906125d0565b508181600301819055505050505050565b61077461165d565b60045481106107b8576040517f08c379a00000000000000000000000000000000000000000000000000000000081526004016107af90612398565b60405180910390fd5b600034116107fb576040517f08c379a00000000000000000000000000000000000000000000000000000000081526004016107f2906126ee565b60405180910390fd5b600060036000838152602001908152602001600020905080600401544210610858576040517f08c379a000000000000000000000000000000000000000000000000000000000815260040161084f9061275a565b60405180910390fd5b80600601339080600181540180825580915050600190039060005260206000200160009091909190916101000a81548173ffffffffffffffffffffffffffffffffffffffff021916908373ffffffffffffffffffffffffffffffffffffffff16021790555080600701349080600181540180825580915050600190039060005260206000200160009091909190915055806008014290806001815401808255809150506001900390600052602060002001600090919091909150553481600501600082825461092791906127a9565b9250508190555060008160000160009054906101000a900473ffffffffffffffffffffffffffffffffffffffff1673ffffffffffffffffffffffffffffffffffffffff16346040516109789061280e565b60006040518083038185875af1925050503d80600081146109b5576040519150601f19603f3d011682016040523d82523d6000602084013e6109ba565b606091505b50509050806109fe576040517f08c379a00000000000000000000000000000000000000000000000000000000081526004016109f59061286f565b60405180910390fd5b8160000160009054906101000a900473ffffffffffffffffffffffffffffffffffffffff1673ffffffffffffffffffffffffffffffffffffffff163373ffffffffffffffffffffffffffffffffffffffff16847f279d143d2be50b14f3e79d7f542bc5b611dd11a4813ec80a6bda277e5cc73e4b3442604051610a8292919061288f565b60405180910390a47f0b5b4c52969ff7329ecf7ee536409fda87812b15a8622bc6e8cdeab3aee14a26833334604051610abd939291906128b8565b60405180910390a15050610acf6116a3565b50565b600160009054906101000a900473ffffffffffffffffffffffffffffffffffffffff1673ffffffffffffffffffffffffffffffffffffffff163373ffffffffffffffffffffffffffffffffffffffff1614610b62576040517f08c379a0000000000000000000000000000000000000000000000000000000008152600401610b599061293b565b60405180910390fd5b80600260008473ffffffffffffffffffffffffffffffffffffffff1673ffffffffffffffffffffffffffffffffffffffff16815260200190815260200160002060006101000a81548160ff0219169083151502179055507f235bc17e7930760029e9f4d860a2a8089976de5b381cf8380fc11c1d88a111338282604051610bea92919061295b565b60405180910390a15050565b600260003373ffffffffffffffffffffffffffffffffffffffff1673ffffffffffffffffffffffffffffffffffffffff16815260200190815260200160002060009054906101000a900460ff16610c82576040517f08c379a0000000000000000000000000000000000000000000000000000000008152600401610c799061232c565b60405180910390fd5b6004548110610cc6576040517f08c379a0000000000000000000000000000000000000000000000000000000008152600401610cbd90612398565b60405180910390fd5b60036000828152602001908152602001600020600080820160006101000a81549073ffffffffffffffffffffffffffffffffffffffff0219169055600182016000610d1191906116ad565b600282016000610d2191906116ad565b600382016000905560048201600090556005820160009055600682016000610d4991906116ed565b600782016000610d59919061170e565b600882016000610d69919061170e565b505050565b6000600260003373ffffffffffffffffffffffffffffffffffffffff1673ffffffffffffffffffffffffffffffffffffffff16815260200190815260200160002060009054906101000a900460ff16610dfc576040517f08c379a0000000000000000000000000000000000000000000000000000000008152600401610df39061232c565b60405180910390fd5b428211610e3e576040517f08c379a0000000000000000000000000000000000000000000000000000000008152600401610e35906129d0565b60405180910390fd5b60008311610e81576040517f08c379a0000000000000000000000000000000000000000000000000000000008152600401610e7890612404565b60405180910390fd5b60006003600060045481526020019081526020016000209050338160000160006101000a81548173ffffffffffffffffffffffffffffffffffffffff021916908373ffffffffffffffffffffffffffffffffffffffff16021790555085816001019081610eee91906125d0565b5084816002019081610f0091906125d0565b508381600301819055508281600401819055507fc04c663886cae794dc52158f70fe6c8ee3b0140d4f48647282f9b693ff688a656004543388604051610f48939291906129f0565b60405180910390a160046000815480929190610f6390612a2e565b91905055506001600454610f779190612a76565b915050949350505050565b60606000805b60045481101561101857600073ffffffffffffffffffffffffffffffffffffffff166003600083815260200190815260200160002060000160009054906101000a900473ffffffffffffffffffffffffffffffffffffffff1673ffffffffffffffffffffffffffffffffffffffff161461100b57818061100790612a2e565b9250505b8080600101915050610f88565b5060008167ffffffffffffffff81111561103557611034611bf0565b5b60405190808252806020026020018201604052801561106e57816020015b61105b61172f565b8152602001906001900390816110535790505b5090506000805b60045481101561141857600073ffffffffffffffffffffffffffffffffffffffff166003600083815260200190815260200160002060000160009054906101000a900473ffffffffffffffffffffffffffffffffffffffff1673ffffffffffffffffffffffffffffffffffffffff161461140b5760036000828152602001908152602001600020604051806101200160405290816000820160009054906101000a900473ffffffffffffffffffffffffffffffffffffffff1673ffffffffffffffffffffffffffffffffffffffff1673ffffffffffffffffffffffffffffffffffffffff16815260200160018201805461116e906122af565b80601f016020809104026020016040519081016040528092919081815260200182805461119a906122af565b80156111e75780601f106111bc576101008083540402835291602001916111e7565b820191906000526020600020905b8154815290600101906020018083116111ca57829003601f168201915b50505050508152602001600282018054611200906122af565b80601f016020809104026020016040519081016040528092919081815260200182805461122c906122af565b80156112795780601f1061124e57610100808354040283529160200191611279565b820191906000526020600020905b81548152906001019060200180831161125c57829003601f168201915b505050505081526020016003820154815260200160048201548152602001600582015481526020016006820180548060200260200160405190810160405280929190818152602001828054801561132557602002820191906000526020600020905b8160009054906101000a900473ffffffffffffffffffffffffffffffffffffffff1673ffffffffffffffffffffffffffffffffffffffff16815260200190600101908083116112db575b505050505081526020016007820180548060200260200160405190810160405280929190818152602001828054801561137d57602002820191906000526020600020905b815481526020019060010190808311611369575b50505050508152602001600882018054806020026020016040519081016040528092919081815260200182805480156113d557602002820191906000526020600020905b8154815260200190600101908083116113c1575b5050505050815250508383815181106113f1576113f0612aaa565b5b6020026020010181905250818061140790612a2e565b9250505b8080600101915050611075565b5081935050505090565b6000600260003373ffffffffffffffffffffffffffffffffffffffff1673ffffffffffffffffffffffffffffffffffffffff16815260200190815260200160002060009054906101000a900460ff166114b0576040517f08c379a00000000000000000000000000000000000000000000000000000000081526004016114a79061232c565b60405180910390fd5b4282116114f2576040517f08c379a00000000000000000000000000000000000000000000000000000000081526004016114e9906129d0565b60405180910390fd5b60008311611535576040517f08c379a000000000000000000000000000000000000000000000000000000000815260040161152c90612404565b60405180910390fd5b60006003600060045481526020019081526020016000209050868160000160006101000a81548173ffffffffffffffffffffffffffffffffffffffff021916908373ffffffffffffffffffffffffffffffffffffffff160217905550858160010190816115a291906125d0565b50848160020190816115b491906125d0565b508381600301819055508281600401819055507fc04c663886cae794dc52158f70fe6c8ee3b0140d4f48647282f9b693ff688a6560045488886040516115fc939291906129f0565b60405180910390a16004600081548092919061161790612a2e565b9190505550600160045461162b9190612a76565b91505095945050505050565b600160009054906101000a900473ffffffffffffffffffffffffffffffffffffffff1681565b600260005403611699576040517f3ee5aeb500000000000000000000000000000000000000000000000000000000815260040160405180910390fd5b6002600081905550565b6001600081905550565b5080546116b9906122af565b6000825580601f106116cb57506116ea565b601f0160209004906000526020600020908101906116e99190611791565b5b50565b508054600082559060005260206000209081019061170b9190611791565b50565b508054600082559060005260206000209081019061172c9190611791565b50565b604051806101200160405280600073ffffffffffffffffffffffffffffffffffffffff16815260200160608152602001606081526020016000815260200160008152602001600081526020016060815260200160608152602001606081525090565b5b808211156117aa576000816000905550600101611792565b5090565b6000819050919050565b6117c1816117ae565b82525050565b60006020820190506117dc60008301846117b8565b92915050565b6000604051905090565b600080fd5b600080fd5b6117ff816117ae565b811461180a57600080fd5b50565b60008135905061181c816117f6565b92915050565b600060208284031215611838576118376117ec565b5b60006118468482850161180d565b91505092915050565b600081519050919050565b600082825260208201905092915050565b6000819050602082019050919050565b600073ffffffffffffffffffffffffffffffffffffffff82169050919050565b60006118a68261187b565b9050919050565b6118b68161189b565b82525050565b60006118c883836118ad565b60208301905092915050565b6000602082019050919050565b60006118ec8261184f565b6118f6818561185a565b93506119018361186b565b8060005b8381101561193257815161191988826118bc565b9750611924836118d4565b925050600181019050611905565b5085935050505092915050565b600081519050919050565b600082825260208201905092915050565b6000819050602082019050919050565b611974816117ae565b82525050565b6000611986838361196b565b60208301905092915050565b6000602082019050919050565b60006119aa8261193f565b6119b4818561194a565b93506119bf8361195b565b8060005b838110156119f05781516119d7888261197a565b97506119e283611992565b9250506001810190506119c3565b5085935050505092915050565b60006060820190508181036000830152611a1781866118e1565b90508181036020830152611a2b818561199f565b90508181036040830152611a3f818461199f565b9050949350505050565b611a528161189b565b82525050565b600081519050919050565b600082825260208201905092915050565b60005b83811015611a92578082015181840152602081019050611a77565b60008484015250505050565b6000601f19601f8301169050919050565b6000611aba82611a58565b611ac48185611a63565b9350611ad4818560208601611a74565b611add81611a9e565b840191505092915050565b600060c082019050611afd6000830189611a49565b8181036020830152611b0f8188611aaf565b90508181036040830152611b238187611aaf565b9050611b3260608301866117b8565b611b3f60808301856117b8565b611b4c60a08301846117b8565b979650505050505050565b611b608161189b565b8114611b6b57600080fd5b50565b600081359050611b7d81611b57565b92915050565b600060208284031215611b9957611b986117ec565b5b6000611ba784828501611b6e565b91505092915050565b60008115159050919050565b611bc581611bb0565b82525050565b6000602082019050611be06000830184611bbc565b92915050565b600080fd5b600080fd5b7f4e487b7100000000000000000000000000000000000000000000000000000000600052604160045260246000fd5b611c2882611a9e565b810181811067ffffffffffffffff82111715611c4757611c46611bf0565b5b80604052505050565b6000611c5a6117e2565b9050611c668282611c1f565b919050565b600067ffffffffffffffff821115611c8657611c85611bf0565b5b611c8f82611a9e565b9050602081019050919050565b82818337600083830152505050565b6000611cbe611cb984611c6b565b611c50565b905082815260208101848484011115611cda57611cd9611beb565b5b611ce5848285611c9c565b509392505050565b600082601f830112611d0257611d01611be6565b5b8135611d12848260208601611cab565b91505092915050565b60008060008060808587031215611d3557611d346117ec565b5b6000611d438782880161180d565b945050602085013567ffffffffffffffff811115611d6457611d636117f1565b5b611d7087828801611ced565b935050604085013567ffffffffffffffff811115611d9157611d906117f1565b5b611d9d87828801611ced565b9250506060611dae8782880161180d565b91505092959194509250565b611dc381611bb0565b8114611dce57600080fd5b50565b600081359050611de081611dba565b92915050565b60008060408385031215611dfd57611dfc6117ec565b5b6000611e0b85828601611b6e565b9250506020611e1c85828601611dd1565b9150509250929050565b60008060008060808587031215611e4057611e3f6117ec565b5b600085013567ffffffffffffffff811115611e5e57611e5d6117f1565b5b611e6a87828801611ced565b945050602085013567ffffffffffffffff811115611e8b57611e8a6117f1565b5b611e9787828801611ced565b9350506040611ea88782880161180d565b9250506060611eb98782880161180d565b91505092959194509250565b600081519050919050565b600082825260208201905092915050565b6000819050602082019050919050565b600082825260208201905092915050565b6000611f0d82611a58565b611f178185611ef1565b9350611f27818560208601611a74565b611f3081611a9e565b840191505092915050565b600082825260208201905092915050565b6000611f578261184f565b611f618185611f3b565b9350611f6c8361186b565b8060005b83811015611f9d578151611f8488826118bc565b9750611f8f836118d4565b925050600181019050611f70565b5085935050505092915050565b600082825260208201905092915050565b6000611fc68261193f565b611fd08185611faa565b9350611fdb8361195b565b8060005b8381101561200c578151611ff3888261197a565b9750611ffe83611992565b925050600181019050611fdf565b5085935050505092915050565b60006101208301600083015161203260008601826118ad565b506020830151848203602086015261204a8282611f02565b915050604083015184820360408601526120648282611f02565b9150506060830151612079606086018261196b565b50608083015161208c608086018261196b565b5060a083015161209f60a086018261196b565b5060c083015184820360c08601526120b78282611f4c565b91505060e083015184820360e08601526120d18282611fbb565b9150506101008301518482036101008601526120ed8282611fbb565b9150508091505092915050565b60006121068383612019565b905092915050565b6000602082019050919050565b600061212682611ec5565b6121308185611ed0565b93508360208202850161214285611ee1565b8060005b8581101561217e578484038952815161215f85826120fa565b945061216a8361210e565b925060208a01995050600181019050612146565b50829750879550505050505092915050565b600060208201905081810360008301526121aa818461211b565b905092915050565b600080600080600060a086880312156121ce576121cd6117ec565b5b60006121dc88828901611b6e565b955050602086013567ffffffffffffffff8111156121fd576121fc6117f1565b5b61220988828901611ced565b945050604086013567ffffffffffffffff81111561222a576122296117f1565b5b61223688828901611ced565b93505060606122478882890161180d565b92505060806122588882890161180d565b9150509295509295909350565b600060208201905061227a6000830184611a49565b92915050565b7f4e487b7100000000000000000000000000000000000000000000000000000000600052602260045260246000fd5b600060028204905060018216806122c757607f821691505b6020821081036122da576122d9612280565b5b50919050565b7f4f6e6c792061646d696e20616c6c6f7765640000000000000000000000000000600082015250565b6000612316601283611a63565b9150612321826122e0565b602082019050919050565b6000602082019050818103600083015261234581612309565b9050919050565b7f43616d706169676e20646f6573206e6f74206578697374000000000000000000600082015250565b6000612382601783611a63565b915061238d8261234c565b602082019050919050565b600060208201905081810360008301526123b181612375565b9050919050565b7f546172676574206d7573742062652067726561746572207468616e2030000000600082015250565b60006123ee601d83611a63565b91506123f9826123b8565b602082019050919050565b6000602082019050818103600083015261241d816123e1565b9050919050565b60008190508160005260206000209050919050565b60006020601f8301049050919050565b600082821b905092915050565b6000600883026124867fffffffffffffffffffffffffffffffffffffffffffffffffffffffffffffffff82612449565b6124908683612449565b95508019841693508086168417925050509392505050565b6000819050919050565b60006124cd6124c86124c3846117ae565b6124a8565b6117ae565b9050919050565b6000819050919050565b6124e7836124b2565b6124fb6124f3826124d4565b848454612456565b825550505050565b600090565b612510612503565b61251b8184846124de565b505050565b5b8181101561253f57612534600082612508565b600181019050612521565b5050565b601f8211156125845761255581612424565b61255e84612439565b8101602085101561256d578190505b61258161257985612439565b830182612520565b50505b505050565b600082821c905092915050565b60006125a760001984600802612589565b1980831691505092915050565b60006125c08383612596565b9150826002028217905092915050565b6125d982611a58565b67ffffffffffffffff8111156125f2576125f1611bf0565b5b6125fc82546122af565b612607828285612543565b600060209050601f83116001811461263a5760008415612628578287015190505b61263285826125b4565b86555061269a565b601f19841661264886612424565b60005b828110156126705784890151825560018201915060208501945060208101905061264b565b8683101561268d5784890151612689601f891682612596565b8355505b6001600288020188555050505b505050505050565b7f446f6e6174696f6e206d7573742062652067726561746572207468616e203000600082015250565b60006126d8601f83611a63565b91506126e3826126a2565b602082019050919050565b60006020820190508181036000830152612707816126cb565b9050919050565b7f43616d706169676e206578706972656400000000000000000000000000000000600082015250565b6000612744601083611a63565b915061274f8261270e565b602082019050919050565b6000602082019050818103600083015261277381612737565b9050919050565b7f4e487b7100000000000000000000000000000000000000000000000000000000600052601160045260246000fd5b60006127b4826117ae565b91506127bf836117ae565b92508282019050808211156127d7576127d661277a565b5b92915050565b600081905092915050565b50565b60006127f86000836127dd565b9150612803826127e8565b600082019050919050565b6000612819826127eb565b9150819050919050565b7f5472616e73666572206661696c65640000000000000000000000000000000000600082015250565b6000612859600f83611a63565b915061286482612823565b602082019050919050565b600060208201905081810360008301526128888161284c565b9050919050565b60006040820190506128a460008301856117b8565b6128b160208301846117b8565b9392505050565b60006060820190506128cd60008301866117b8565b6128da6020830185611a49565b6128e760408301846117b8565b949350505050565b7f4f6e6c7920636f6e7472616374206f776e657220616c6c6f7765640000000000600082015250565b6000612925601b83611a63565b9150612930826128ef565b602082019050919050565b6000602082019050818103600083015261295481612918565b9050919050565b60006040820190506129706000830185611a49565b61297d6020830184611bbc565b9392505050565b7f446561646c696e65206d75737420626520696e20746865206675747572650000600082015250565b60006129ba601e83611a63565b91506129c582612984565b602082019050919050565b600060208201905081810360008301526129e9816129ad565b9050919050565b6000606082019050612a0560008301866117b8565b612a126020830185611a49565b8181036040830152612a248184611aaf565b9050949350505050565b6000612a39826117ae565b91507fffffffffffffffffffffffffffffffffffffffffffffffffffffffffffffffff8203612a6b57612a6a61277a565b5b600182019050919050565b6000612a81826117ae565b9150612a8c836117ae565b9250828203905081811115612aa457612aa361277a565b5b92915050565b7f4e487b7100000000000000000000000000000000000000000000000000000000600052603260045260246000fdfea264697066735822122024a5e002126d716b0ee37d88de6ba24bd0e9e4324c94934e439430b84de24b6064736f6c634300081c0033",
  "linkReferences": {},
  "deployedLinkReferences": {}
}