{
  "_format": "hh-sol-artifact-1",
  "contractName": "CrowdFunding",
  "sourceName": "contracts/CrowdFunding.sol",
  "abi": [
    {
      "inputs": [
        {
          "internalType": "uint256",
          "name": "",
          "type": "uint256"
        }
      ],
      "name": "campaigns",
      "outputs": [
        {
          "internalType": "address",
          "name": "owner",
          "type": "address"
        },
        {
          "internalType": "string",
          "name": "title",
          "type": "string"
        },
        {
          "internalType": "string",
          "name": "description",
          "type": "string"
        },
        {
          "internalType": "uint256",
          "name": "target",
          "type": "uint256"
        },
        {
          "internalType": "uint256",
          "name": "deadline",
          "type": "uint256"
        },
        {
          "internalType": "uint256",
          "name": "amountCollected",
          "type": "uint256"
        }
      ],
      "stateMutability": "view",
      "type": "function"
    },
    {
      "inputs": [
        {
          "internalType": "address",
          "name": "_owner",
          "type": "address"
        },
        {
          "internalType": "string",
          "name": "_title",
          "type": "string"
        },
        {
          "internalType": "string",
          "name": "_description",
          "type": "string"
        },
        {
          "internalType": "uint256",
          "name": "_target",
          "type": "uint256"
        },
        {
          "internalType": "uint256",
          "name": "_deadline",
          "type": "uint256"
        }
      ],
      "name": "createCampaign",
      "outputs": [
        {
          "internalType": "uint256",
          "name": "",
          "type": "uint256"
        }
      ],
      "stateMutability": "nonpayable",
      "type": "function"
    },
    {
      "inputs": [
        {
          "internalType": "uint256",
          "name": "_id",
          "type": "uint256"
        }
      ],
      "name": "donateToCampaign",
      "outputs": [],
      "stateMutability": "payable",
      "type": "function"
    },
    {
      "inputs": [],
      "name": "getCampaigns",
      "outputs": [
        {
          "components": [
            {
              "internalType": "address",
              "name": "owner",
              "type": "address"
            },
            {
              "internalType": "string",
              "name": "title",
              "type": "string"
            },
            {
              "internalType": "string",
              "name": "description",
              "type": "string"
            },
            {
              "internalType": "uint256",
              "name": "target",
              "type": "uint256"
            },
            {
              "internalType": "uint256",
              "name": "deadline",
              "type": "uint256"
            },
            {
              "internalType": "uint256",
              "name": "amountCollected",
              "type": "uint256"
            },
            {
              "internalType": "address[]",
              "name": "donators",
              "type": "address[]"
            },
            {
              "internalType": "uint256[]",
              "name": "donations",
              "type": "uint256[]"
            }
          ],
          "internalType": "struct CrowdFunding.Campaign[]",
          "name": "",
          "type": "tuple[]"
        }
      ],
      "stateMutability": "view",
      "type": "function"
    },
    {
      "inputs": [
        {
          "internalType": "uint256",
          "name": "_id",
          "type": "uint256"
        }
      ],
      "name": "getDonators",
      "outputs": [
        {
          "internalType": "address[]",
          "name": "",
          "type": "address[]"
        },
        {
          "internalType": "uint256[]",
          "name": "",
          "type": "uint256[]"
        }
      ],
      "stateMutability": "view",
      "type": "function"
    },
    {
      "inputs": [],
      "name": "numberOfCampaigns",
      "outputs": [
        {
          "internalType": "uint256",
          "name": "",
          "type": "uint256"
        }
      ],
      "stateMutability": "view",
      "type": "function"
    }
  ],
  "bytecode": "0x60806040526000600155348015601457600080fd5b5061185c806100246000396000f3fe6080604052600436106100555760003560e01c8063075843c31461005a57806307ca140d146100975780630fa91fa9146100c2578063141961bc1461010057806342a4fda814610142578063a6b036331461015e575b600080fd5b34801561006657600080fd5b50610081600480360381019061007c9190610c45565b610189565b60405161008e9190610d07565b60405180910390f35b3480156100a357600080fd5b506100ac610299565b6040516100b99190610d07565b60405180910390f35b3480156100ce57600080fd5b506100e960048036038101906100e49190610d22565b61029f565b6040516100f7929190610ecb565b60405180910390f35b34801561010c57600080fd5b5061012760048036038101906101229190610d22565b6103af565b60405161013996959493929190610f90565b60405180910390f35b61015c60048036038101906101579190610d22565b61051b565b005b34801561016a57600080fd5b506101736106be565b60405161018091906112ae565b60405180910390f35b600080600080600154815260200190815260200160002090504283116101e4576040517f08c379a00000000000000000000000000000000000000000000000000000000081526004016101db90611342565b60405180910390fd5b868160000160006101000a81548173ffffffffffffffffffffffffffffffffffffffff021916908373ffffffffffffffffffffffffffffffffffffffff16021790555085816001019081610238919061156e565b508481600201908161024a919061156e565b50838160030181905550828160040181905550600081600501819055506001600081548092919061027a9061166f565b91905055506001805461028d91906116b7565b91505095945050505050565b60015481565b6060806000808481526020019081526020016000206006016000808581526020019081526020016000206007018180548060200260200160405190810160405280929190818152602001828054801561034d57602002820191906000526020600020905b8160009054906101000a900473ffffffffffffffffffffffffffffffffffffffff1673ffffffffffffffffffffffffffffffffffffffff1681526020019060010190808311610303575b505050505091508080548060200260200160405190810160405280929190818152602001828054801561039f57602002820191906000526020600020905b81548152602001906001019080831161038b575b5050505050905091509150915091565b60006020528060005260406000206000915090508060000160009054906101000a900473ffffffffffffffffffffffffffffffffffffffff16908060010180546103f890611391565b80601f016020809104026020016040519081016040528092919081815260200182805461042490611391565b80156104715780601f1061044657610100808354040283529160200191610471565b820191906000526020600020905b81548152906001019060200180831161045457829003601f168201915b50505050509080600201805461048690611391565b80601f01602080910402602001604051908101604052809291908181526020018280546104b290611391565b80156104ff5780601f106104d4576101008083540402835291602001916104ff565b820191906000526020600020905b8154815290600101906020018083116104e257829003601f168201915b5050505050908060030154908060040154908060050154905086565b6000341161055e576040517f08c379a00000000000000000000000000000000000000000000000000000000081526004016105559061175d565b60405180910390fd5b60003490506000806000848152602001908152602001600020905080600601339080600181540180825580915050600190039060005260206000200160009091909190916101000a81548173ffffffffffffffffffffffffffffffffffffffff021916908373ffffffffffffffffffffffffffffffffffffffff1602179055508060070182908060018154018082558091505060019003906000526020600020016000909190919091505560008160000160009054906101000a900473ffffffffffffffffffffffffffffffffffffffff1673ffffffffffffffffffffffffffffffffffffffff1683604051610653906117ae565b60006040518083038185875af1925050503d8060008114610690576040519150601f19603f3d011682016040523d82523d6000602084013e610695565b606091505b5050905080156106b8578282600501546106af91906117c3565b82600501819055505b50505050565b6060600060015467ffffffffffffffff8111156106de576106dd610ae4565b5b60405190808252806020026020018201604052801561071757816020015b6107046109fc565b8152602001906001900390816106fc5790505b50905060005b6001548110156109f4576000806000838152602001908152602001600020905080604051806101000160405290816000820160009054906101000a900473ffffffffffffffffffffffffffffffffffffffff1673ffffffffffffffffffffffffffffffffffffffff1673ffffffffffffffffffffffffffffffffffffffff1681526020016001820180546107b090611391565b80601f01602080910402602001604051908101604052809291908181526020018280546107dc90611391565b80156108295780601f106107fe57610100808354040283529160200191610829565b820191906000526020600020905b81548152906001019060200180831161080c57829003601f168201915b5050505050815260200160028201805461084290611391565b80601f016020809104026020016040519081016040528092919081815260200182805461086e90611391565b80156108bb5780601f10610890576101008083540402835291602001916108bb565b820191906000526020600020905b81548152906001019060200180831161089e57829003601f168201915b505050505081526020016003820154815260200160048201548152602001600582015481526020016006820180548060200260200160405190810160405280929190818152602001828054801561096757602002820191906000526020600020905b8160009054906101000a900473ffffffffffffffffffffffffffffffffffffffff1673ffffffffffffffffffffffffffffffffffffffff168152602001906001019080831161091d575b50505050508152602001600782018054806020026020016040519081016040528092919081815260200182805480156109bf57602002820191906000526020600020905b8154815260200190600101908083116109ab575b5050505050815250508383815181106109db576109da6117f7565b5b602002602001018190525050808060010191505061071d565b508091505090565b604051806101000160405280600073ffffffffffffffffffffffffffffffffffffffff168152602001606081526020016060815260200160008152602001600081526020016000815260200160608152602001606081525090565b6000604051905090565b600080fd5b600080fd5b600073ffffffffffffffffffffffffffffffffffffffff82169050919050565b6000610a9682610a6b565b9050919050565b610aa681610a8b565b8114610ab157600080fd5b50565b600081359050610ac381610a9d565b92915050565b600080fd5b600080fd5b6000601f19601f8301169050919050565b7f4e487b7100000000000000000000000000000000000000000000000000000000600052604160045260246000fd5b610b1c82610ad3565b810181811067ffffffffffffffff82111715610b3b57610b3a610ae4565b5b80604052505050565b6000610b4e610a57565b9050610b5a8282610b13565b919050565b600067ffffffffffffffff821115610b7a57610b79610ae4565b5b610b8382610ad3565b9050602081019050919050565b82818337600083830152505050565b6000610bb2610bad84610b5f565b610b44565b905082815260208101848484011115610bce57610bcd610ace565b5b610bd9848285610b90565b509392505050565b600082601f830112610bf657610bf5610ac9565b5b8135610c06848260208601610b9f565b91505092915050565b6000819050919050565b610c2281610c0f565b8114610c2d57600080fd5b50565b600081359050610c3f81610c19565b92915050565b600080600080600060a08688031215610c6157610c60610a61565b5b6000610c6f88828901610ab4565b955050602086013567ffffffffffffffff811115610c9057610c8f610a66565b5b610c9c88828901610be1565b945050604086013567ffffffffffffffff811115610cbd57610cbc610a66565b5b610cc988828901610be1565b9350506060610cda88828901610c30565b9250506080610ceb88828901610c30565b9150509295509295909350565b610d0181610c0f565b82525050565b6000602082019050610d1c6000830184610cf8565b92915050565b600060208284031215610d3857610d37610a61565b5b6000610d4684828501610c30565b91505092915050565b600081519050919050565b600082825260208201905092915050565b6000819050602082019050919050565b610d8481610a8b565b82525050565b6000610d968383610d7b565b60208301905092915050565b6000602082019050919050565b6000610dba82610d4f565b610dc48185610d5a565b9350610dcf83610d6b565b8060005b83811015610e00578151610de78882610d8a565b9750610df283610da2565b925050600181019050610dd3565b5085935050505092915050565b600081519050919050565b600082825260208201905092915050565b6000819050602082019050919050565b610e4281610c0f565b82525050565b6000610e548383610e39565b60208301905092915050565b6000602082019050919050565b6000610e7882610e0d565b610e828185610e18565b9350610e8d83610e29565b8060005b83811015610ebe578151610ea58882610e48565b9750610eb083610e60565b925050600181019050610e91565b5085935050505092915050565b60006040820190508181036000830152610ee58185610daf565b90508181036020830152610ef98184610e6d565b90509392505050565b610f0b81610a8b565b82525050565b600081519050919050565b600082825260208201905092915050565b60005b83811015610f4b578082015181840152602081019050610f30565b60008484015250505050565b6000610f6282610f11565b610f6c8185610f1c565b9350610f7c818560208601610f2d565b610f8581610ad3565b840191505092915050565b600060c082019050610fa56000830189610f02565b8181036020830152610fb78188610f57565b90508181036040830152610fcb8187610f57565b9050610fda6060830186610cf8565b610fe76080830185610cf8565b610ff460a0830184610cf8565b979650505050505050565b600081519050919050565b600082825260208201905092915050565b6000819050602082019050919050565b600082825260208201905092915050565b600061104782610f11565b611051818561102b565b9350611061818560208601610f2d565b61106a81610ad3565b840191505092915050565b600082825260208201905092915050565b600061109182610d4f565b61109b8185611075565b93506110a683610d6b565b8060005b838110156110d75781516110be8882610d8a565b97506110c983610da2565b9250506001810190506110aa565b5085935050505092915050565b600082825260208201905092915050565b600061110082610e0d565b61110a81856110e4565b935061111583610e29565b8060005b8381101561114657815161112d8882610e48565b975061113883610e60565b925050600181019050611119565b5085935050505092915050565b60006101008301600083015161116c6000860182610d7b565b5060208301518482036020860152611184828261103c565b9150506040830151848203604086015261119e828261103c565b91505060608301516111b36060860182610e39565b5060808301516111c66080860182610e39565b5060a08301516111d960a0860182610e39565b5060c083015184820360c08601526111f18282611086565b91505060e083015184820360e086015261120b82826110f5565b9150508091505092915050565b60006112248383611153565b905092915050565b6000602082019050919050565b600061124482610fff565b61124e818561100a565b9350836020820285016112608561101b565b8060005b8581101561129c578484038952815161127d8582611218565b94506112888361122c565b925060208a01995050600181019050611264565b50829750879550505050505092915050565b600060208201905081810360008301526112c88184611239565b905092915050565b7f74686520646561646c696e652073686f756c642062652073657420746865206660008201527f75747572652061732074686973206461746520686173207061737365642e0000602082015250565b600061132c603e83610f1c565b9150611337826112d0565b604082019050919050565b6000602082019050818103600083015261135b8161131f565b9050919050565b7f4e487b7100000000000000000000000000000000000000000000000000000000600052602260045260246000fd5b600060028204905060018216806113a957607f821691505b6020821081036113bc576113bb611362565b5b50919050565b60008190508160005260206000209050919050565b60006020601f8301049050919050565b600082821b905092915050565b6000600883026114247fffffffffffffffffffffffffffffffffffffffffffffffffffffffffffffffff826113e7565b61142e86836113e7565b95508019841693508086168417925050509392505050565b6000819050919050565b600061146b61146661146184610c0f565b611446565b610c0f565b9050919050565b6000819050919050565b61148583611450565b61149961149182611472565b8484546113f4565b825550505050565b600090565b6114ae6114a1565b6114b981848461147c565b505050565b5b818110156114dd576114d26000826114a6565b6001810190506114bf565b5050565b601f821115611522576114f3816113c2565b6114fc846113d7565b8101602085101561150b578190505b61151f611517856113d7565b8301826114be565b50505b505050565b600082821c905092915050565b600061154560001984600802611527565b1980831691505092915050565b600061155e8383611534565b9150826002028217905092915050565b61157782610f11565b67ffffffffffffffff8111156115905761158f610ae4565b5b61159a8254611391565b6115a58282856114e1565b600060209050601f8311600181146115d857600084156115c6578287015190505b6115d08582611552565b865550611638565b601f1984166115e6866113c2565b60005b8281101561160e578489015182556001820191506020850194506020810190506115e9565b8683101561162b5784890151611627601f891682611534565b8355505b6001600288020188555050505b505050505050565b7f4e487b7100000000000000000000000000000000000000000000000000000000600052601160045260246000fd5b600061167a82610c0f565b91507fffffffffffffffffffffffffffffffffffffffffffffffffffffffffffffffff82036116ac576116ab611640565b5b600182019050919050565b60006116c282610c0f565b91506116cd83610c0f565b92508282039050818111156116e5576116e4611640565b5b92915050565b7f446f6e6174696f6e20616d6f756e74206d75737420626520677265617465722060008201527f7468616e207a65726f2e00000000000000000000000000000000000000000000602082015250565b6000611747602a83610f1c565b9150611752826116eb565b604082019050919050565b600060208201905081810360008301526117768161173a565b9050919050565b600081905092915050565b50565b600061179860008361177d565b91506117a382611788565b600082019050919050565b60006117b98261178b565b9150819050919050565b60006117ce82610c0f565b91506117d983610c0f565b92508282019050808211156117f1576117f0611640565b5b92915050565b7f4e487b7100000000000000000000000000000000000000000000000000000000600052603260045260246000fdfea264697066735822122060f7a51292b518804c272b6fdc41c4433a28d3bd51734b230e16f2bc464b2fd064736f6c634300081c0033",
  "linkReferences": {},
  "deployedLinkReferences": {}
}