{
  "_format": "hh-sol-artifact-1",
  "contractName": "CrowdFunding",
  "sourceName": "contracts/CrowdFunding.sol",
  "abi": [
    {
      "inputs": [],
      "stateMutability": "nonpayable",
      "type": "constructor"
    },
    {
      "inputs": [],
      "name": "ReentrancyGuardReentrantCall",
      "type": "error"
    },
    {
      "anonymous": false,
      "inputs": [
        {
          "indexed": false,
          "internalType": "address",
          "name": "admin",
          "type": "address"
        },
        {
          "indexed": false,
          "internalType": "bool",
          "name": "status",
          "type": "bool"
        }
      ],
      "name": "AdminUpdated",
      "type": "event"
    },
    {
      "anonymous": false,
      "inputs": [
        {
          "indexed": false,
          "internalType": "uint256",
          "name": "id",
          "type": "uint256"
        },
        {
          "indexed": false,
          "internalType": "address",
          "name": "owner",
          "type": "address"
        },
        {
          "indexed": false,
          "internalType": "string",
          "name": "title",
          "type": "string"
        }
      ],
      "name": "CampaignCreated",
      "type": "event"
    },
    {
      "anonymous": false,
      "inputs": [
        {
          "indexed": false,
          "internalType": "uint256",
          "name": "campaignId",
          "type": "uint256"
        },
        {
          "indexed": false,
          "internalType": "address",
          "name": "donator",
          "type": "address"
        },
        {
          "indexed": false,
          "internalType": "uint256",
          "name": "amount",
          "type": "uint256"
        }
      ],
      "name": "DonationReceived",
      "type": "event"
    },
    {
      "inputs": [
        {
          "internalType": "uint256",
          "name": "",
          "type": "uint256"
        }
      ],
      "name": "campaigns",
      "outputs": [
        {
          "internalType": "address",
          "name": "owner",
          "type": "address"
        },
        {
          "internalType": "string",
          "name": "title",
          "type": "string"
        },
        {
          "internalType": "string",
          "name": "description",
          "type": "string"
        },
        {
          "internalType": "uint256",
          "name": "target",
          "type": "uint256"
        },
        {
          "internalType": "uint256",
          "name": "deadline",
          "type": "uint256"
        },
        {
          "internalType": "uint256",
          "name": "amountCollected",
          "type": "uint256"
        }
      ],
      "stateMutability": "view",
      "type": "function"
    },
    {
      "inputs": [],
      "name": "contractOwner",
      "outputs": [
        {
          "internalType": "address",
          "name": "",
          "type": "address"
        }
      ],
      "stateMutability": "view",
      "type": "function"
    },
    {
      "inputs": [
        {
          "internalType": "string",
          "name": "_title",
          "type": "string"
        },
        {
          "internalType": "string",
          "name": "_description",
          "type": "string"
        },
        {
          "internalType": "uint256",
          "name": "_target",
          "type": "uint256"
        },
        {
          "internalType": "uint256",
          "name": "_deadline",
          "type": "uint256"
        }
      ],
      "name": "createCampaign",
      "outputs": [
        {
          "internalType": "uint256",
          "name": "",
          "type": "uint256"
        }
      ],
      "stateMutability": "nonpayable",
      "type": "function"
    },
    {
      "inputs": [
        {
          "internalType": "address",
          "name": "_owner",
          "type": "address"
        },
        {
          "internalType": "string",
          "name": "_title",
          "type": "string"
        },
        {
          "internalType": "string",
          "name": "_description",
          "type": "string"
        },
        {
          "internalType": "uint256",
          "name": "_target",
          "type": "uint256"
        },
        {
          "internalType": "uint256",
          "name": "_deadline",
          "type": "uint256"
        }
      ],
      "name": "createCampaignForTest",
      "outputs": [
        {
          "internalType": "uint256",
          "name": "",
          "type": "uint256"
        }
      ],
      "stateMutability": "nonpayable",
      "type": "function"
    },
    {
      "inputs": [
        {
          "internalType": "uint256",
          "name": "_id",
          "type": "uint256"
        }
      ],
      "name": "donateToCampaign",
      "outputs": [],
      "stateMutability": "payable",
      "type": "function"
    },
    {
      "inputs": [],
      "name": "getCampaigns",
      "outputs": [
        {
          "components": [
            {
              "internalType": "address",
              "name": "owner",
              "type": "address"
            },
            {
              "internalType": "string",
              "name": "title",
              "type": "string"
            },
            {
              "internalType": "string",
              "name": "description",
              "type": "string"
            },
            {
              "internalType": "uint256",
              "name": "target",
              "type": "uint256"
            },
            {
              "internalType": "uint256",
              "name": "deadline",
              "type": "uint256"
            },
            {
              "internalType": "uint256",
              "name": "amountCollected",
              "type": "uint256"
            },
            {
              "internalType": "address[]",
              "name": "donators",
              "type": "address[]"
            },
            {
              "internalType": "uint256[]",
              "name": "donations",
              "type": "uint256[]"
            }
          ],
          "internalType": "struct CrowdFunding.Campaign[]",
          "name": "",
          "type": "tuple[]"
        }
      ],
      "stateMutability": "view",
      "type": "function"
    },
    {
      "inputs": [
        {
          "internalType": "uint256",
          "name": "_id",
          "type": "uint256"
        }
      ],
      "name": "getDonators",
      "outputs": [
        {
          "internalType": "address[]",
          "name": "",
          "type": "address[]"
        },
        {
          "internalType": "uint256[]",
          "name": "",
          "type": "uint256[]"
        }
      ],
      "stateMutability": "view",
      "type": "function"
    },
    {
      "inputs": [
        {
          "internalType": "address",
          "name": "",
          "type": "address"
        }
      ],
      "name": "isAdmin",
      "outputs": [
        {
          "internalType": "bool",
          "name": "",
          "type": "bool"
        }
      ],
      "stateMutability": "view",
      "type": "function"
    },
    {
      "inputs": [],
      "name": "numberOfCampaigns",
      "outputs": [
        {
          "internalType": "uint256",
          "name": "",
          "type": "uint256"
        }
      ],
      "stateMutability": "view",
      "type": "function"
    },
    {
      "inputs": [
        {
          "internalType": "address",
          "name": "_admin",
          "type": "address"
        },
        {
          "internalType": "bool",
          "name": "_status",
          "type": "bool"
        }
      ],
      "name": "setAdmin",
      "outputs": [],
      "stateMutability": "nonpayable",
      "type": "function"
    }
  ],
  "bytecode": "0x6080604052348015600f57600080fd5b50600160008190555033600160006101000a81548173ffffffffffffffffffffffffffffffffffffffff021916908373ffffffffffffffffffffffffffffffffffffffff1602179055506001600260003373ffffffffffffffffffffffffffffffffffffffff1673ffffffffffffffffffffffffffffffffffffffff16815260200190815260200160002060006101000a81548160ff0219169083151502179055506123a5806100c06000396000f3fe6080604052600436106100915760003560e01c80634b0bddd2116100595780634b0bddd21461019a578063a318f269146101c3578063a6b0363314610200578063c811e6051461022b578063ce606ee01461026857610091565b806307ca140d146100965780630fa91fa9146100c1578063141961bc146100ff57806324d7806c1461014157806342a4fda81461017e575b600080fd5b3480156100a257600080fd5b506100ab610293565b6040516100b89190611156565b60405180910390f35b3480156100cd57600080fd5b506100e860048036038101906100e391906111b1565b610299565b6040516100f692919061138c565b60405180910390f35b34801561010b57600080fd5b50610126600480360381019061012191906111b1565b6103ab565b60405161013896959493929190611462565b60405180910390f35b34801561014d57600080fd5b50610168600480360381019061016391906114fd565b610517565b6040516101759190611545565b60405180910390f35b610198600480360381019061019391906111b1565b610537565b005b3480156101a657600080fd5b506101c160048036038101906101bc919061158c565b6107e6565b005b3480156101cf57600080fd5b506101ea60048036038101906101e59190611701565b61090a565b6040516101f79190611156565b60405180910390f35b34801561020c57600080fd5b50610215610b1e565b6040516102229190611a4f565b60405180910390f35b34801561023757600080fd5b50610252600480360381019061024d9190611a71565b610e57565b60405161025f9190611156565b60405180910390f35b34801561027457600080fd5b5061027d61106c565b60405161028a9190611b24565b60405180910390f35b60045481565b60608060036000848152602001908152602001600020600601600360008581526020019081526020016000206007018180548060200260200160405190810160405280929190818152602001828054801561034957602002820191906000526020600020905b8160009054906101000a900473ffffffffffffffffffffffffffffffffffffffff1673ffffffffffffffffffffffffffffffffffffffff16815260200190600101908083116102ff575b505050505091508080548060200260200160405190810160405280929190818152602001828054801561039b57602002820191906000526020600020905b815481526020019060010190808311610387575b5050505050905091509150915091565b60036020528060005260406000206000915090508060000160009054906101000a900473ffffffffffffffffffffffffffffffffffffffff16908060010180546103f490611b6e565b80601f016020809104026020016040519081016040528092919081815260200182805461042090611b6e565b801561046d5780601f106104425761010080835404028352916020019161046d565b820191906000526020600020905b81548152906001019060200180831161045057829003601f168201915b50505050509080600201805461048290611b6e565b80601f01602080910402602001604051908101604052809291908181526020018280546104ae90611b6e565b80156104fb5780601f106104d0576101008083540402835291602001916104fb565b820191906000526020600020905b8154815290600101906020018083116104de57829003601f168201915b5050505050908060030154908060040154908060050154905086565b60026020528060005260406000206000915054906101000a900460ff1681565b61053f611092565b6004548110610583576040517f08c379a000000000000000000000000000000000000000000000000000000000815260040161057a90611beb565b60405180910390fd5b600034116105c6576040517f08c379a00000000000000000000000000000000000000000000000000000000081526004016105bd90611c57565b60405180910390fd5b600060036000838152602001908152602001600020905080600401544210610623576040517f08c379a000000000000000000000000000000000000000000000000000000000815260040161061a90611cc3565b60405180910390fd5b80600601339080600181540180825580915050600190039060005260206000200160009091909190916101000a81548173ffffffffffffffffffffffffffffffffffffffff021916908373ffffffffffffffffffffffffffffffffffffffff16021790555080600701349080600181540180825580915050600190039060005260206000200160009091909190915055348160050160008282546106c79190611d12565b9250508190555060008160000160009054906101000a900473ffffffffffffffffffffffffffffffffffffffff1673ffffffffffffffffffffffffffffffffffffffff163460405161071890611d77565b60006040518083038185875af1925050503d8060008114610755576040519150601f19603f3d011682016040523d82523d6000602084013e61075a565b606091505b505090508061079e576040517f08c379a000000000000000000000000000000000000000000000000000000000815260040161079590611dd8565b60405180910390fd5b7f0b5b4c52969ff7329ecf7ee536409fda87812b15a8622bc6e8cdeab3aee14a268333346040516107d193929190611df8565b60405180910390a150506107e36110d8565b50565b600160009054906101000a900473ffffffffffffffffffffffffffffffffffffffff1673ffffffffffffffffffffffffffffffffffffffff163373ffffffffffffffffffffffffffffffffffffffff1614610876576040517f08c379a000000000000000000000000000000000000000000000000000000000815260040161086d90611e7b565b60405180910390fd5b80600260008473ffffffffffffffffffffffffffffffffffffffff1673ffffffffffffffffffffffffffffffffffffffff16815260200190815260200160002060006101000a81548160ff0219169083151502179055507f235bc17e7930760029e9f4d860a2a8089976de5b381cf8380fc11c1d88a1113382826040516108fe929190611e9b565b60405180910390a15050565b6000600260003373ffffffffffffffffffffffffffffffffffffffff1673ffffffffffffffffffffffffffffffffffffffff16815260200190815260200160002060009054906101000a900460ff16610998576040517f08c379a000000000000000000000000000000000000000000000000000000000815260040161098f90611f10565b60405180910390fd5b4282116109da576040517f08c379a00000000000000000000000000000000000000000000000000000000081526004016109d190611f7c565b60405180910390fd5b60008311610a1d576040517f08c379a0000000000000000000000000000000000000000000000000000000008152600401610a1490611fe8565b60405180910390fd5b60006003600060045481526020019081526020016000209050338160000160006101000a81548173ffffffffffffffffffffffffffffffffffffffff021916908373ffffffffffffffffffffffffffffffffffffffff16021790555085816001019081610a8a91906121b4565b5084816002019081610a9c91906121b4565b508381600301819055508281600401819055507fc04c663886cae794dc52158f70fe6c8ee3b0140d4f48647282f9b693ff688a656004543388604051610ae493929190612286565b60405180910390a160046000815480929190610aff906122c4565b91905055506001600454610b13919061230c565b915050949350505050565b6060600060045467ffffffffffffffff811115610b3e57610b3d6115d6565b5b604051908082528060200260200182016040528015610b7757816020015b610b646110e2565b815260200190600190039081610b5c5790505b50905060005b600454811015610e4f5760036000828152602001908152602001600020604051806101000160405290816000820160009054906101000a900473ffffffffffffffffffffffffffffffffffffffff1673ffffffffffffffffffffffffffffffffffffffff1673ffffffffffffffffffffffffffffffffffffffff168152602001600182018054610c0c90611b6e565b80601f0160208091040260200160405190810160405280929190818152602001828054610c3890611b6e565b8015610c855780601f10610c5a57610100808354040283529160200191610c85565b820191906000526020600020905b815481529060010190602001808311610c6857829003601f168201915b50505050508152602001600282018054610c9e90611b6e565b80601f0160208091040260200160405190810160405280929190818152602001828054610cca90611b6e565b8015610d175780601f10610cec57610100808354040283529160200191610d17565b820191906000526020600020905b815481529060010190602001808311610cfa57829003601f168201915b5050505050815260200160038201548152602001600482015481526020016005820154815260200160068201805480602002602001604051908101604052809291908181526020018280548015610dc357602002820191906000526020600020905b8160009054906101000a900473ffffffffffffffffffffffffffffffffffffffff1673ffffffffffffffffffffffffffffffffffffffff1681526020019060010190808311610d79575b5050505050815260200160078201805480602002602001604051908101604052809291908181526020018280548015610e1b57602002820191906000526020600020905b815481526020019060010190808311610e07575b505050505081525050828281518110610e3757610e36612340565b5b60200260200101819052508080600101915050610b7d565b508091505090565b6000600260003373ffffffffffffffffffffffffffffffffffffffff1673ffffffffffffffffffffffffffffffffffffffff16815260200190815260200160002060009054906101000a900460ff16610ee5576040517f08c379a0000000000000000000000000000000000000000000000000000000008152600401610edc90611f10565b60405180910390fd5b428211610f27576040517f08c379a0000000000000000000000000000000000000000000000000000000008152600401610f1e90611f7c565b60405180910390fd5b60008311610f6a576040517f08c379a0000000000000000000000000000000000000000000000000000000008152600401610f6190611fe8565b60405180910390fd5b60006003600060045481526020019081526020016000209050868160000160006101000a81548173ffffffffffffffffffffffffffffffffffffffff021916908373ffffffffffffffffffffffffffffffffffffffff16021790555085816001019081610fd791906121b4565b5084816002019081610fe991906121b4565b508381600301819055508281600401819055507fc04c663886cae794dc52158f70fe6c8ee3b0140d4f48647282f9b693ff688a65600454888860405161103193929190612286565b60405180910390a16004600081548092919061104c906122c4565b91905055506001600454611060919061230c565b91505095945050505050565b600160009054906101000a900473ffffffffffffffffffffffffffffffffffffffff1681565b6002600054036110ce576040517f3ee5aeb500000000000000000000000000000000000000000000000000000000815260040160405180910390fd5b6002600081905550565b6001600081905550565b604051806101000160405280600073ffffffffffffffffffffffffffffffffffffffff168152602001606081526020016060815260200160008152602001600081526020016000815260200160608152602001606081525090565b6000819050919050565b6111508161113d565b82525050565b600060208201905061116b6000830184611147565b92915050565b6000604051905090565b600080fd5b600080fd5b61118e8161113d565b811461119957600080fd5b50565b6000813590506111ab81611185565b92915050565b6000602082840312156111c7576111c661117b565b5b60006111d58482850161119c565b91505092915050565b600081519050919050565b600082825260208201905092915050565b6000819050602082019050919050565b600073ffffffffffffffffffffffffffffffffffffffff82169050919050565b60006112358261120a565b9050919050565b6112458161122a565b82525050565b6000611257838361123c565b60208301905092915050565b6000602082019050919050565b600061127b826111de565b61128581856111e9565b9350611290836111fa565b8060005b838110156112c15781516112a8888261124b565b97506112b383611263565b925050600181019050611294565b5085935050505092915050565b600081519050919050565b600082825260208201905092915050565b6000819050602082019050919050565b6113038161113d565b82525050565b600061131583836112fa565b60208301905092915050565b6000602082019050919050565b6000611339826112ce565b61134381856112d9565b935061134e836112ea565b8060005b8381101561137f5781516113668882611309565b975061137183611321565b925050600181019050611352565b5085935050505092915050565b600060408201905081810360008301526113a68185611270565b905081810360208301526113ba818461132e565b90509392505050565b6113cc8161122a565b82525050565b600081519050919050565b600082825260208201905092915050565b60005b8381101561140c5780820151818401526020810190506113f1565b60008484015250505050565b6000601f19601f8301169050919050565b6000611434826113d2565b61143e81856113dd565b935061144e8185602086016113ee565b61145781611418565b840191505092915050565b600060c08201905061147760008301896113c3565b81810360208301526114898188611429565b9050818103604083015261149d8187611429565b90506114ac6060830186611147565b6114b96080830185611147565b6114c660a0830184611147565b979650505050505050565b6114da8161122a565b81146114e557600080fd5b50565b6000813590506114f7816114d1565b92915050565b6000602082840312156115135761151261117b565b5b6000611521848285016114e8565b91505092915050565b60008115159050919050565b61153f8161152a565b82525050565b600060208201905061155a6000830184611536565b92915050565b6115698161152a565b811461157457600080fd5b50565b60008135905061158681611560565b92915050565b600080604083850312156115a3576115a261117b565b5b60006115b1858286016114e8565b92505060206115c285828601611577565b9150509250929050565b600080fd5b600080fd5b7f4e487b7100000000000000000000000000000000000000000000000000000000600052604160045260246000fd5b61160e82611418565b810181811067ffffffffffffffff8211171561162d5761162c6115d6565b5b80604052505050565b6000611640611171565b905061164c8282611605565b919050565b600067ffffffffffffffff82111561166c5761166b6115d6565b5b61167582611418565b9050602081019050919050565b82818337600083830152505050565b60006116a461169f84611651565b611636565b9050828152602081018484840111156116c0576116bf6115d1565b5b6116cb848285611682565b509392505050565b600082601f8301126116e8576116e76115cc565b5b81356116f8848260208601611691565b91505092915050565b6000806000806080858703121561171b5761171a61117b565b5b600085013567ffffffffffffffff81111561173957611738611180565b5b611745878288016116d3565b945050602085013567ffffffffffffffff81111561176657611765611180565b5b611772878288016116d3565b93505060406117838782880161119c565b92505060606117948782880161119c565b91505092959194509250565b600081519050919050565b600082825260208201905092915050565b6000819050602082019050919050565b600082825260208201905092915050565b60006117e8826113d2565b6117f281856117cc565b93506118028185602086016113ee565b61180b81611418565b840191505092915050565b600082825260208201905092915050565b6000611832826111de565b61183c8185611816565b9350611847836111fa565b8060005b8381101561187857815161185f888261124b565b975061186a83611263565b92505060018101905061184b565b5085935050505092915050565b600082825260208201905092915050565b60006118a1826112ce565b6118ab8185611885565b93506118b6836112ea565b8060005b838110156118e75781516118ce8882611309565b97506118d983611321565b9250506001810190506118ba565b5085935050505092915050565b60006101008301600083015161190d600086018261123c565b506020830151848203602086015261192582826117dd565b9150506040830151848203604086015261193f82826117dd565b915050606083015161195460608601826112fa565b50608083015161196760808601826112fa565b5060a083015161197a60a08601826112fa565b5060c083015184820360c08601526119928282611827565b91505060e083015184820360e08601526119ac8282611896565b9150508091505092915050565b60006119c583836118f4565b905092915050565b6000602082019050919050565b60006119e5826117a0565b6119ef81856117ab565b935083602082028501611a01856117bc565b8060005b85811015611a3d5784840389528151611a1e85826119b9565b9450611a29836119cd565b925060208a01995050600181019050611a05565b50829750879550505050505092915050565b60006020820190508181036000830152611a6981846119da565b905092915050565b600080600080600060a08688031215611a8d57611a8c61117b565b5b6000611a9b888289016114e8565b955050602086013567ffffffffffffffff811115611abc57611abb611180565b5b611ac8888289016116d3565b945050604086013567ffffffffffffffff811115611ae957611ae8611180565b5b611af5888289016116d3565b9350506060611b068882890161119c565b9250506080611b178882890161119c565b9150509295509295909350565b6000602082019050611b3960008301846113c3565b92915050565b7f4e487b7100000000000000000000000000000000000000000000000000000000600052602260045260246000fd5b60006002820490506001821680611b8657607f821691505b602082108103611b9957611b98611b3f565b5b50919050565b7f43616d706169676e20646f6573206e6f74206578697374000000000000000000600082015250565b6000611bd56017836113dd565b9150611be082611b9f565b602082019050919050565b60006020820190508181036000830152611c0481611bc8565b9050919050565b7f446f6e6174696f6e206d7573742062652067726561746572207468616e203000600082015250565b6000611c41601f836113dd565b9150611c4c82611c0b565b602082019050919050565b60006020820190508181036000830152611c7081611c34565b9050919050565b7f43616d706169676e206578706972656400000000000000000000000000000000600082015250565b6000611cad6010836113dd565b9150611cb882611c77565b602082019050919050565b60006020820190508181036000830152611cdc81611ca0565b9050919050565b7f4e487b7100000000000000000000000000000000000000000000000000000000600052601160045260246000fd5b6000611d1d8261113d565b9150611d288361113d565b9250828201905080821115611d4057611d3f611ce3565b5b92915050565b600081905092915050565b50565b6000611d61600083611d46565b9150611d6c82611d51565b600082019050919050565b6000611d8282611d54565b9150819050919050565b7f5472616e73666572206661696c65640000000000000000000000000000000000600082015250565b6000611dc2600f836113dd565b9150611dcd82611d8c565b602082019050919050565b60006020820190508181036000830152611df181611db5565b9050919050565b6000606082019050611e0d6000830186611147565b611e1a60208301856113c3565b611e276040830184611147565b949350505050565b7f4f6e6c7920636f6e7472616374206f776e657220616c6c6f7765640000000000600082015250565b6000611e65601b836113dd565b9150611e7082611e2f565b602082019050919050565b60006020820190508181036000830152611e9481611e58565b9050919050565b6000604082019050611eb060008301856113c3565b611ebd6020830184611536565b9392505050565b7f4f6e6c792061646d696e20616c6c6f7765640000000000000000000000000000600082015250565b6000611efa6012836113dd565b9150611f0582611ec4565b602082019050919050565b60006020820190508181036000830152611f2981611eed565b9050919050565b7f446561646c696e65206d75737420626520696e20746865206675747572650000600082015250565b6000611f66601e836113dd565b9150611f7182611f30565b602082019050919050565b60006020820190508181036000830152611f9581611f59565b9050919050565b7f546172676574206d7573742062652067726561746572207468616e2030000000600082015250565b6000611fd2601d836113dd565b9150611fdd82611f9c565b602082019050919050565b6000602082019050818103600083015261200181611fc5565b9050919050565b60008190508160005260206000209050919050565b60006020601f8301049050919050565b600082821b905092915050565b60006008830261206a7fffffffffffffffffffffffffffffffffffffffffffffffffffffffffffffffff8261202d565b612074868361202d565b95508019841693508086168417925050509392505050565b6000819050919050565b60006120b16120ac6120a78461113d565b61208c565b61113d565b9050919050565b6000819050919050565b6120cb83612096565b6120df6120d7826120b8565b84845461203a565b825550505050565b600090565b6120f46120e7565b6120ff8184846120c2565b505050565b5b81811015612123576121186000826120ec565b600181019050612105565b5050565b601f8211156121685761213981612008565b6121428461201d565b81016020851015612151578190505b61216561215d8561201d565b830182612104565b50505b505050565b600082821c905092915050565b600061218b6000198460080261216d565b1980831691505092915050565b60006121a4838361217a565b9150826002028217905092915050565b6121bd826113d2565b67ffffffffffffffff8111156121d6576121d56115d6565b5b6121e08254611b6e565b6121eb828285612127565b600060209050601f83116001811461221e576000841561220c578287015190505b6122168582612198565b86555061227e565b601f19841661222c86612008565b60005b828110156122545784890151825560018201915060208501945060208101905061222f565b86831015612271578489015161226d601f89168261217a565b8355505b6001600288020188555050505b505050505050565b600060608201905061229b6000830186611147565b6122a860208301856113c3565b81810360408301526122ba8184611429565b9050949350505050565b60006122cf8261113d565b91507fffffffffffffffffffffffffffffffffffffffffffffffffffffffffffffffff820361230157612300611ce3565b5b600182019050919050565b60006123178261113d565b91506123228361113d565b925082820390508181111561233a57612339611ce3565b5b92915050565b7f4e487b7100000000000000000000000000000000000000000000000000000000600052603260045260246000fdfea2646970667358221220dbcb9fd14dc2d435931a9953d92181e92801c1863fe08755c390e94ad495699464736f6c634300081c0033",
  "linkReferences": {},
  "deployedLinkReferences": {}
}