{
  "_format": "hh-sol-artifact-1",
  "contractName": "CrowdFunding",
  "sourceName": "contracts/CrowdFunding.sol",
  "abi": [
    {
      "inputs": [],
      "stateMutability": "nonpayable",
      "type": "constructor"
    },
    {
      "inputs": [],
      "name": "ReentrancyGuardReentrantCall",
      "type": "error"
    },
    {
      "anonymous": false,
      "inputs": [
        {
          "indexed": false,
          "internalType": "address",
          "name": "admin",
          "type": "address"
        },
        {
          "indexed": false,
          "internalType": "bool",
          "name": "status",
          "type": "bool"
        }
      ],
      "name": "AdminUpdated",
      "type": "event"
    },
    {
      "anonymous": false,
      "inputs": [
        {
          "indexed": false,
          "internalType": "uint256",
          "name": "id",
          "type": "uint256"
        },
        {
          "indexed": false,
          "internalType": "address",
          "name": "owner",
          "type": "address"
        },
        {
          "indexed": false,
          "internalType": "string",
          "name": "title",
          "type": "string"
        }
      ],
      "name": "CampaignCreated",
      "type": "event"
    },
    {
      "anonymous": false,
      "inputs": [
        {
          "indexed": false,
          "internalType": "uint256",
          "name": "campaignId",
          "type": "uint256"
        },
        {
          "indexed": false,
          "internalType": "address",
          "name": "donator",
          "type": "address"
        },
        {
          "indexed": false,
          "internalType": "uint256",
          "name": "amount",
          "type": "uint256"
        }
      ],
      "name": "DonationReceived",
      "type": "event"
    },
    {
      "anonymous": false,
      "inputs": [
        {
          "indexed": true,
          "internalType": "uint256",
          "name": "campaignId",
          "type": "uint256"
        },
        {
          "indexed": true,
          "internalType": "address",
          "name": "from",
          "type": "address"
        },
        {
          "indexed": true,
          "internalType": "address",
          "name": "to",
          "type": "address"
        },
        {
          "indexed": false,
          "internalType": "uint256",
          "name": "amount",
          "type": "uint256"
        },
        {
          "indexed": false,
          "internalType": "uint256",
          "name": "timestamp",
          "type": "uint256"
        }
      ],
      "name": "DonationTransferred",
      "type": "event"
    },
    {
      "inputs": [
        {
          "internalType": "uint256",
          "name": "",
          "type": "uint256"
        }
      ],
      "name": "campaigns",
      "outputs": [
        {
          "internalType": "uint256",
          "name": "id",
          "type": "uint256"
        },
        {
          "internalType": "bool",
          "name": "isDeleted",
          "type": "bool"
        },
        {
          "internalType": "address",
          "name": "owner",
          "type": "address"
        },
        {
          "internalType": "string",
          "name": "title",
          "type": "string"
        },
        {
          "internalType": "string",
          "name": "description",
          "type": "string"
        },
        {
          "internalType": "uint256",
          "name": "target",
          "type": "uint256"
        },
        {
          "internalType": "uint256",
          "name": "deadline",
          "type": "uint256"
        },
        {
          "internalType": "uint256",
          "name": "amountCollected",
          "type": "uint256"
        }
      ],
      "stateMutability": "view",
      "type": "function"
    },
    {
      "inputs": [],
      "name": "contractOwner",
      "outputs": [
        {
          "internalType": "address",
          "name": "",
          "type": "address"
        }
      ],
      "stateMutability": "view",
      "type": "function"
    },
    {
      "inputs": [
        {
          "internalType": "string",
          "name": "_title",
          "type": "string"
        },
        {
          "internalType": "string",
          "name": "_description",
          "type": "string"
        },
        {
          "internalType": "uint256",
          "name": "_target",
          "type": "uint256"
        },
        {
          "internalType": "uint256",
          "name": "_deadline",
          "type": "uint256"
        }
      ],
      "name": "createCampaign",
      "outputs": [
        {
          "internalType": "uint256",
          "name": "",
          "type": "uint256"
        }
      ],
      "stateMutability": "nonpayable",
      "type": "function"
    },
    {
      "inputs": [
        {
          "internalType": "address",
          "name": "_owner",
          "type": "address"
        },
        {
          "internalType": "string",
          "name": "_title",
          "type": "string"
        },
        {
          "internalType": "string",
          "name": "_description",
          "type": "string"
        },
        {
          "internalType": "uint256",
          "name": "_target",
          "type": "uint256"
        },
        {
          "internalType": "uint256",
          "name": "_deadline",
          "type": "uint256"
        }
      ],
      "name": "createCampaignForTest",
      "outputs": [
        {
          "internalType": "uint256",
          "name": "",
          "type": "uint256"
        }
      ],
      "stateMutability": "nonpayable",
      "type": "function"
    },
    {
      "inputs": [
        {
          "internalType": "uint256",
          "name": "_id",
          "type": "uint256"
        }
      ],
      "name": "deleteCampaign",
      "outputs": [],
      "stateMutability": "nonpayable",
      "type": "function"
    },
    {
      "inputs": [
        {
          "internalType": "uint256",
          "name": "_id",
          "type": "uint256"
        }
      ],
      "name": "donateToCampaign",
      "outputs": [],
      "stateMutability": "payable",
      "type": "function"
    },
    {
      "inputs": [],
      "name": "getAllCampaigns",
      "outputs": [
        {
          "components": [
            {
              "internalType": "uint256",
              "name": "id",
              "type": "uint256"
            },
            {
              "internalType": "bool",
              "name": "isDeleted",
              "type": "bool"
            },
            {
              "internalType": "address",
              "name": "owner",
              "type": "address"
            },
            {
              "internalType": "string",
              "name": "title",
              "type": "string"
            },
            {
              "internalType": "string",
              "name": "description",
              "type": "string"
            },
            {
              "internalType": "uint256",
              "name": "target",
              "type": "uint256"
            },
            {
              "internalType": "uint256",
              "name": "deadline",
              "type": "uint256"
            },
            {
              "internalType": "uint256",
              "name": "amountCollected",
              "type": "uint256"
            },
            {
              "internalType": "address[]",
              "name": "donators",
              "type": "address[]"
            },
            {
              "internalType": "uint256[]",
              "name": "donations",
              "type": "uint256[]"
            },
            {
              "internalType": "uint256[]",
              "name": "timestamps",
              "type": "uint256[]"
            }
          ],
          "internalType": "struct CrowdFunding.Campaign[]",
          "name": "",
          "type": "tuple[]"
        }
      ],
      "stateMutability": "view",
      "type": "function"
    },
    {
      "inputs": [],
      "name": "getCampaigns",
      "outputs": [
        {
          "components": [
            {
              "internalType": "uint256",
              "name": "id",
              "type": "uint256"
            },
            {
              "internalType": "bool",
              "name": "isDeleted",
              "type": "bool"
            },
            {
              "internalType": "address",
              "name": "owner",
              "type": "address"
            },
            {
              "internalType": "string",
              "name": "title",
              "type": "string"
            },
            {
              "internalType": "string",
              "name": "description",
              "type": "string"
            },
            {
              "internalType": "uint256",
              "name": "target",
              "type": "uint256"
            },
            {
              "internalType": "uint256",
              "name": "deadline",
              "type": "uint256"
            },
            {
              "internalType": "uint256",
              "name": "amountCollected",
              "type": "uint256"
            },
            {
              "internalType": "address[]",
              "name": "donators",
              "type": "address[]"
            },
            {
              "internalType": "uint256[]",
              "name": "donations",
              "type": "uint256[]"
            },
            {
              "internalType": "uint256[]",
              "name": "timestamps",
              "type": "uint256[]"
            }
          ],
          "internalType": "struct CrowdFunding.Campaign[]",
          "name": "",
          "type": "tuple[]"
        }
      ],
      "stateMutability": "view",
      "type": "function"
    },
    {
      "inputs": [
        {
          "internalType": "uint256",
          "name": "_id",
          "type": "uint256"
        }
      ],
      "name": "getDonators",
      "outputs": [
        {
          "internalType": "address[]",
          "name": "",
          "type": "address[]"
        },
        {
          "internalType": "uint256[]",
          "name": "",
          "type": "uint256[]"
        },
        {
          "internalType": "uint256[]",
          "name": "",
          "type": "uint256[]"
        }
      ],
      "stateMutability": "view",
      "type": "function"
    },
    {
      "inputs": [
        {
          "internalType": "address",
          "name": "",
          "type": "address"
        }
      ],
      "name": "isAdmin",
      "outputs": [
        {
          "internalType": "bool",
          "name": "",
          "type": "bool"
        }
      ],
      "stateMutability": "view",
      "type": "function"
    },
    {
      "inputs": [],
      "name": "numberOfCampaigns",
      "outputs": [
        {
          "internalType": "uint256",
          "name": "",
          "type": "uint256"
        }
      ],
      "stateMutability": "view",
      "type": "function"
    },
    {
      "inputs": [
        {
          "internalType": "address",
          "name": "_admin",
          "type": "address"
        },
        {
          "internalType": "bool",
          "name": "_status",
          "type": "bool"
        }
      ],
      "name": "setAdmin",
      "outputs": [],
      "stateMutability": "nonpayable",
      "type": "function"
    },
    {
      "inputs": [
        {
          "internalType": "uint256",
          "name": "_id",
          "type": "uint256"
        },
        {
          "internalType": "string",
          "name": "_title",
          "type": "string"
        },
        {
          "internalType": "string",
          "name": "_description",
          "type": "string"
        },
        {
          "internalType": "uint256",
          "name": "_target",
          "type": "uint256"
        }
      ],
      "name": "updateCampaign",
      "outputs": [],
      "stateMutability": "nonpayable",
      "type": "function"
    }
  ],
  "bytecode": "0x6080604052348015600f57600080fd5b50600160008190555033600160006101000a81548173ffffffffffffffffffffffffffffffffffffffff021916908373ffffffffffffffffffffffffffffffffffffffff1602179055506001600260003373ffffffffffffffffffffffffffffffffffffffff1673ffffffffffffffffffffffffffffffffffffffff16815260200190815260200160002060006101000a81548160ff021916908315150217905550612e23806100c06000396000f3fe6080604052600436106100c25760003560e01c80634b0bddd21161007f578063a318f26911610059578063a318f26914610274578063a6b03633146102b1578063c811e605146102dc578063ce606ee014610319576100c2565b80634b0bddd2146101f7578063759701931461022057806386cdf60414610249576100c2565b806307ca140d146100c75780630fa91fa9146100f2578063141961bc1461013157806324d7806c146101755780633b0ac838146101b257806342a4fda8146101db575b600080fd5b3480156100d357600080fd5b506100dc610344565b6040516100e99190611a85565b60405180910390f35b3480156100fe57600080fd5b5061011960048036038101906101149190611ae0565b61034a565b60405161012893929190611cbb565b60405180910390f35b34801561013d57600080fd5b5061015860048036038101906101539190611ae0565b6104ca565b60405161016c989796959493929190611dc1565b60405180910390f35b34801561018157600080fd5b5061019c60048036038101906101979190611e79565b61064f565b6040516101a99190611ea6565b60405180910390f35b3480156101be57600080fd5b506101d960048036038101906101d49190611ff6565b61066f565b005b6101f560048036038101906101f09190611ae0565b6107cd565b005b34801561020357600080fd5b5061021e600480360381019061021991906120c1565b610b33565b005b34801561022c57600080fd5b5061024760048036038101906102429190611ae0565b610c57565b005b34801561025557600080fd5b5061025e610d59565b60405161026b9190612405565b60405180910390f35b34801561028057600080fd5b5061029b60048036038101906102969190612427565b61110f565b6040516102a89190611a85565b60405180910390f35b3480156102bd57600080fd5b506102c661132e565b6040516102d39190612405565b60405180910390f35b3480156102e857600080fd5b5061030360048036038101906102fe91906124c6565b61176f565b6040516103109190611a85565b60405180910390f35b34801561032557600080fd5b5061032e611984565b60405161033b9190612579565b60405180910390f35b60045481565b60608060606003600085815260200190815260200160002060070160036000868152602001908152602001600020600801600360008781526020019081526020016000206009018280548060200260200160405190810160405280929190818152602001828054801561041257602002820191906000526020600020905b8160009054906101000a900473ffffffffffffffffffffffffffffffffffffffff1673ffffffffffffffffffffffffffffffffffffffff16815260200190600101908083116103c8575b505050505092508180548060200260200160405190810160405280929190818152602001828054801561046457602002820191906000526020600020905b815481526020019060010190808311610450575b50505050509150808054806020026020016040519081016040528092919081815260200182805480156104b657602002820191906000526020600020905b8154815260200190600101908083116104a2575b505050505090509250925092509193909250565b60036020528060005260406000206000915090508060000154908060010160009054906101000a900460ff16908060010160019054906101000a900473ffffffffffffffffffffffffffffffffffffffff169080600201805461052c906125c3565b80601f0160208091040260200160405190810160405280929190818152602001828054610558906125c3565b80156105a55780601f1061057a576101008083540402835291602001916105a5565b820191906000526020600020905b81548152906001019060200180831161058857829003601f168201915b5050505050908060030180546105ba906125c3565b80601f01602080910402602001604051908101604052809291908181526020018280546105e6906125c3565b80156106335780601f1061060857610100808354040283529160200191610633565b820191906000526020600020905b81548152906001019060200180831161061657829003601f168201915b5050505050908060040154908060050154908060060154905088565b60026020528060005260406000206000915054906101000a900460ff1681565b600260003373ffffffffffffffffffffffffffffffffffffffff1673ffffffffffffffffffffffffffffffffffffffff16815260200190815260200160002060009054906101000a900460ff166106fb576040517f08c379a00000000000000000000000000000000000000000000000000000000081526004016106f290612640565b60405180910390fd5b600454841061073f576040517f08c379a0000000000000000000000000000000000000000000000000000000008152600401610736906126ac565b60405180910390fd5b60008111610782576040517f08c379a000000000000000000000000000000000000000000000000000000000815260040161077990612718565b60405180910390fd5b6000600360008681526020019081526020016000209050838160020190816107aa91906128e4565b50828160030190816107bc91906128e4565b508181600401819055505050505050565b6107d56119aa565b6004548110610819576040517f08c379a0000000000000000000000000000000000000000000000000000000008152600401610810906126ac565b60405180910390fd5b6000341161085c576040517f08c379a000000000000000000000000000000000000000000000000000000000815260040161085390612a02565b60405180910390fd5b6000600360008381526020019081526020016000209050806005015442106108b9576040517f08c379a00000000000000000000000000000000000000000000000000000000081526004016108b090612a6e565b60405180910390fd5b80600701339080600181540180825580915050600190039060005260206000200160009091909190916101000a81548173ffffffffffffffffffffffffffffffffffffffff021916908373ffffffffffffffffffffffffffffffffffffffff1602179055508060080134908060018154018082558091505060019003906000526020600020016000909190919091505580600901429080600181540180825580915050600190039060005260206000200160009091909190915055348160060160008282546109889190612abd565b9250508190555060008160010160019054906101000a900473ffffffffffffffffffffffffffffffffffffffff1673ffffffffffffffffffffffffffffffffffffffff16346040516109d990612b22565b60006040518083038185875af1925050503d8060008114610a16576040519150601f19603f3d011682016040523d82523d6000602084013e610a1b565b606091505b5050905080610a5f576040517f08c379a0000000000000000000000000000000000000000000000000000000008152600401610a5690612b83565b60405180910390fd5b8160010160019054906101000a900473ffffffffffffffffffffffffffffffffffffffff1673ffffffffffffffffffffffffffffffffffffffff163373ffffffffffffffffffffffffffffffffffffffff16847f279d143d2be50b14f3e79d7f542bc5b611dd11a4813ec80a6bda277e5cc73e4b3442604051610ae3929190612ba3565b60405180910390a47f0b5b4c52969ff7329ecf7ee536409fda87812b15a8622bc6e8cdeab3aee14a26833334604051610b1e93929190612bcc565b60405180910390a15050610b306119f0565b50565b600160009054906101000a900473ffffffffffffffffffffffffffffffffffffffff1673ffffffffffffffffffffffffffffffffffffffff163373ffffffffffffffffffffffffffffffffffffffff1614610bc3576040517f08c379a0000000000000000000000000000000000000000000000000000000008152600401610bba90612c4f565b60405180910390fd5b80600260008473ffffffffffffffffffffffffffffffffffffffff1673ffffffffffffffffffffffffffffffffffffffff16815260200190815260200160002060006101000a81548160ff0219169083151502179055507f235bc17e7930760029e9f4d860a2a8089976de5b381cf8380fc11c1d88a111338282604051610c4b929190612c6f565b60405180910390a15050565b600260003373ffffffffffffffffffffffffffffffffffffffff1673ffffffffffffffffffffffffffffffffffffffff16815260200190815260200160002060009054906101000a900460ff16610ce3576040517f08c379a0000000000000000000000000000000000000000000000000000000008152600401610cda90612640565b60405180910390fd5b6004548110610d27576040517f08c379a0000000000000000000000000000000000000000000000000000000008152600401610d1e906126ac565b60405180910390fd5b60016003600083815260200190815260200160002060010160006101000a81548160ff02191690831515021790555050565b6060600060045467ffffffffffffffff811115610d7957610d78611ecb565b5b604051908082528060200260200182016040528015610db257816020015b610d9f6119fa565b815260200190600190039081610d975790505b50905060005b600454811015611107576003600082815260200190815260200160002060405180610160016040529081600082015481526020016001820160009054906101000a900460ff161515151581526020016001820160019054906101000a900473ffffffffffffffffffffffffffffffffffffffff1673ffffffffffffffffffffffffffffffffffffffff1673ffffffffffffffffffffffffffffffffffffffff168152602001600282018054610e6c906125c3565b80601f0160208091040260200160405190810160405280929190818152602001828054610e98906125c3565b8015610ee55780601f10610eba57610100808354040283529160200191610ee5565b820191906000526020600020905b815481529060010190602001808311610ec857829003601f168201915b50505050508152602001600382018054610efe906125c3565b80601f0160208091040260200160405190810160405280929190818152602001828054610f2a906125c3565b8015610f775780601f10610f4c57610100808354040283529160200191610f77565b820191906000526020600020905b815481529060010190602001808311610f5a57829003601f168201915b505050505081526020016004820154815260200160058201548152602001600682015481526020016007820180548060200260200160405190810160405280929190818152602001828054801561102357602002820191906000526020600020905b8160009054906101000a900473ffffffffffffffffffffffffffffffffffffffff1673ffffffffffffffffffffffffffffffffffffffff1681526020019060010190808311610fd9575b505050505081526020016008820180548060200260200160405190810160405280929190818152602001828054801561107b57602002820191906000526020600020905b815481526020019060010190808311611067575b50505050508152602001600982018054806020026020016040519081016040528092919081815260200182805480156110d357602002820191906000526020600020905b8154815260200190600101908083116110bf575b5050505050815250508282815181106110ef576110ee612c98565b5b60200260200101819052508080600101915050610db8565b508091505090565b6000600260003373ffffffffffffffffffffffffffffffffffffffff1673ffffffffffffffffffffffffffffffffffffffff16815260200190815260200160002060009054906101000a900460ff1661119d576040517f08c379a000000000000000000000000000000000000000000000000000000000815260040161119490612640565b60405180910390fd5b4282116111df576040517f08c379a00000000000000000000000000000000000000000000000000000000081526004016111d690612d13565b60405180910390fd5b60008311611222576040517f08c379a000000000000000000000000000000000000000000000000000000000815260040161121990612718565b60405180910390fd5b600060036000600454815260200190815260200160002090506004548160000181905550338160010160016101000a81548173ffffffffffffffffffffffffffffffffffffffff021916908373ffffffffffffffffffffffffffffffffffffffff1602179055508581600201908161129a91906128e4565b50848160030190816112ac91906128e4565b508381600401819055508281600501819055507fc04c663886cae794dc52158f70fe6c8ee3b0140d4f48647282f9b693ff688a6560045433886040516112f493929190612d33565b60405180910390a16004600081548092919061130f90612d71565b919050555060016004546113239190612db9565b915050949350505050565b60606000805b600454811015611382576003600082815260200190815260200160002060010160009054906101000a900460ff1661137557818061137190612d71565b9250505b8080600101915050611334565b5060008167ffffffffffffffff81111561139f5761139e611ecb565b5b6040519080825280602002602001820160405280156113d857816020015b6113c56119fa565b8152602001906001900390816113bd5790505b5090506000805b600454811015611765576003600082815260200190815260200160002060010160009054906101000a900460ff16611758576003600082815260200190815260200160002060405180610160016040529081600082015481526020016001820160009054906101000a900460ff161515151581526020016001820160019054906101000a900473ffffffffffffffffffffffffffffffffffffffff1673ffffffffffffffffffffffffffffffffffffffff1673ffffffffffffffffffffffffffffffffffffffff1681526020016002820180546114bb906125c3565b80601f01602080910402602001604051908101604052809291908181526020018280546114e7906125c3565b80156115345780601f1061150957610100808354040283529160200191611534565b820191906000526020600020905b81548152906001019060200180831161151757829003601f168201915b5050505050815260200160038201805461154d906125c3565b80601f0160208091040260200160405190810160405280929190818152602001828054611579906125c3565b80156115c65780601f1061159b576101008083540402835291602001916115c6565b820191906000526020600020905b8154815290600101906020018083116115a957829003601f168201915b505050505081526020016004820154815260200160058201548152602001600682015481526020016007820180548060200260200160405190810160405280929190818152602001828054801561167257602002820191906000526020600020905b8160009054906101000a900473ffffffffffffffffffffffffffffffffffffffff1673ffffffffffffffffffffffffffffffffffffffff1681526020019060010190808311611628575b50505050508152602001600882018054806020026020016040519081016040528092919081815260200182805480156116ca57602002820191906000526020600020905b8154815260200190600101908083116116b6575b505050505081526020016009820180548060200260200160405190810160405280929190818152602001828054801561172257602002820191906000526020600020905b81548152602001906001019080831161170e575b50505050508152505083838151811061173e5761173d612c98565b5b6020026020010181905250818061175490612d71565b9250505b80806001019150506113df565b5081935050505090565b6000600260003373ffffffffffffffffffffffffffffffffffffffff1673ffffffffffffffffffffffffffffffffffffffff16815260200190815260200160002060009054906101000a900460ff166117fd576040517f08c379a00000000000000000000000000000000000000000000000000000000081526004016117f490612640565b60405180910390fd5b42821161183f576040517f08c379a000000000000000000000000000000000000000000000000000000000815260040161183690612d13565b60405180910390fd5b60008311611882576040517f08c379a000000000000000000000000000000000000000000000000000000000815260040161187990612718565b60405180910390fd5b60006003600060045481526020019081526020016000209050868160010160016101000a81548173ffffffffffffffffffffffffffffffffffffffff021916908373ffffffffffffffffffffffffffffffffffffffff160217905550858160020190816118ef91906128e4565b508481600301908161190191906128e4565b508381600401819055508281600501819055507fc04c663886cae794dc52158f70fe6c8ee3b0140d4f48647282f9b693ff688a65600454888860405161194993929190612d33565b60405180910390a16004600081548092919061196490612d71565b919050555060016004546119789190612db9565b91505095945050505050565b600160009054906101000a900473ffffffffffffffffffffffffffffffffffffffff1681565b6002600054036119e6576040517f3ee5aeb500000000000000000000000000000000000000000000000000000000815260040160405180910390fd5b6002600081905550565b6001600081905550565b60405180610160016040528060008152602001600015158152602001600073ffffffffffffffffffffffffffffffffffffffff16815260200160608152602001606081526020016000815260200160008152602001600081526020016060815260200160608152602001606081525090565b6000819050919050565b611a7f81611a6c565b82525050565b6000602082019050611a9a6000830184611a76565b92915050565b6000604051905090565b600080fd5b600080fd5b611abd81611a6c565b8114611ac857600080fd5b50565b600081359050611ada81611ab4565b92915050565b600060208284031215611af657611af5611aaa565b5b6000611b0484828501611acb565b91505092915050565b600081519050919050565b600082825260208201905092915050565b6000819050602082019050919050565b600073ffffffffffffffffffffffffffffffffffffffff82169050919050565b6000611b6482611b39565b9050919050565b611b7481611b59565b82525050565b6000611b868383611b6b565b60208301905092915050565b6000602082019050919050565b6000611baa82611b0d565b611bb48185611b18565b9350611bbf83611b29565b8060005b83811015611bf0578151611bd78882611b7a565b9750611be283611b92565b925050600181019050611bc3565b5085935050505092915050565b600081519050919050565b600082825260208201905092915050565b6000819050602082019050919050565b611c3281611a6c565b82525050565b6000611c448383611c29565b60208301905092915050565b6000602082019050919050565b6000611c6882611bfd565b611c728185611c08565b9350611c7d83611c19565b8060005b83811015611cae578151611c958882611c38565b9750611ca083611c50565b925050600181019050611c81565b5085935050505092915050565b60006060820190508181036000830152611cd58186611b9f565b90508181036020830152611ce98185611c5d565b90508181036040830152611cfd8184611c5d565b9050949350505050565b60008115159050919050565b611d1c81611d07565b82525050565b611d2b81611b59565b82525050565b600081519050919050565b600082825260208201905092915050565b60005b83811015611d6b578082015181840152602081019050611d50565b60008484015250505050565b6000601f19601f8301169050919050565b6000611d9382611d31565b611d9d8185611d3c565b9350611dad818560208601611d4d565b611db681611d77565b840191505092915050565b600061010082019050611dd7600083018b611a76565b611de4602083018a611d13565b611df16040830189611d22565b8181036060830152611e038188611d88565b90508181036080830152611e178187611d88565b9050611e2660a0830186611a76565b611e3360c0830185611a76565b611e4060e0830184611a76565b9998505050505050505050565b611e5681611b59565b8114611e6157600080fd5b50565b600081359050611e7381611e4d565b92915050565b600060208284031215611e8f57611e8e611aaa565b5b6000611e9d84828501611e64565b91505092915050565b6000602082019050611ebb6000830184611d13565b92915050565b600080fd5b600080fd5b7f4e487b7100000000000000000000000000000000000000000000000000000000600052604160045260246000fd5b611f0382611d77565b810181811067ffffffffffffffff82111715611f2257611f21611ecb565b5b80604052505050565b6000611f35611aa0565b9050611f418282611efa565b919050565b600067ffffffffffffffff821115611f6157611f60611ecb565b5b611f6a82611d77565b9050602081019050919050565b82818337600083830152505050565b6000611f99611f9484611f46565b611f2b565b905082815260208101848484011115611fb557611fb4611ec6565b5b611fc0848285611f77565b509392505050565b600082601f830112611fdd57611fdc611ec1565b5b8135611fed848260208601611f86565b91505092915050565b600080600080608085870312156120105761200f611aaa565b5b600061201e87828801611acb565b945050602085013567ffffffffffffffff81111561203f5761203e611aaf565b5b61204b87828801611fc8565b935050604085013567ffffffffffffffff81111561206c5761206b611aaf565b5b61207887828801611fc8565b925050606061208987828801611acb565b91505092959194509250565b61209e81611d07565b81146120a957600080fd5b50565b6000813590506120bb81612095565b92915050565b600080604083850312156120d8576120d7611aaa565b5b60006120e685828601611e64565b92505060206120f7858286016120ac565b9150509250929050565b600081519050919050565b600082825260208201905092915050565b6000819050602082019050919050565b61213681611d07565b82525050565b600082825260208201905092915050565b600061215882611d31565b612162818561213c565b9350612172818560208601611d4d565b61217b81611d77565b840191505092915050565b600082825260208201905092915050565b60006121a282611b0d565b6121ac8185612186565b93506121b783611b29565b8060005b838110156121e85781516121cf8882611b7a565b97506121da83611b92565b9250506001810190506121bb565b5085935050505092915050565b600082825260208201905092915050565b600061221182611bfd565b61221b81856121f5565b935061222683611c19565b8060005b8381101561225757815161223e8882611c38565b975061224983611c50565b92505060018101905061222a565b5085935050505092915050565b60006101608301600083015161227d6000860182611c29565b506020830151612290602086018261212d565b5060408301516122a36040860182611b6b565b50606083015184820360608601526122bb828261214d565b915050608083015184820360808601526122d5828261214d565b91505060a08301516122ea60a0860182611c29565b5060c08301516122fd60c0860182611c29565b5060e083015161231060e0860182611c29565b5061010083015184820361010086015261232a8282612197565b9150506101208301518482036101208601526123468282612206565b9150506101408301518482036101408601526123628282612206565b9150508091505092915050565b600061237b8383612264565b905092915050565b6000602082019050919050565b600061239b82612101565b6123a5818561210c565b9350836020820285016123b78561211d565b8060005b858110156123f357848403895281516123d4858261236f565b94506123df83612383565b925060208a019950506001810190506123bb565b50829750879550505050505092915050565b6000602082019050818103600083015261241f8184612390565b905092915050565b6000806000806080858703121561244157612440611aaa565b5b600085013567ffffffffffffffff81111561245f5761245e611aaf565b5b61246b87828801611fc8565b945050602085013567ffffffffffffffff81111561248c5761248b611aaf565b5b61249887828801611fc8565b93505060406124a987828801611acb565b92505060606124ba87828801611acb565b91505092959194509250565b600080600080600060a086880312156124e2576124e1611aaa565b5b60006124f088828901611e64565b955050602086013567ffffffffffffffff81111561251157612510611aaf565b5b61251d88828901611fc8565b945050604086013567ffffffffffffffff81111561253e5761253d611aaf565b5b61254a88828901611fc8565b935050606061255b88828901611acb565b925050608061256c88828901611acb565b9150509295509295909350565b600060208201905061258e6000830184611d22565b92915050565b7f4e487b7100000000000000000000000000000000000000000000000000000000600052602260045260246000fd5b600060028204905060018216806125db57607f821691505b6020821081036125ee576125ed612594565b5b50919050565b7f4f6e6c792061646d696e20616c6c6f7765640000000000000000000000000000600082015250565b600061262a601283611d3c565b9150612635826125f4565b602082019050919050565b600060208201905081810360008301526126598161261d565b9050919050565b7f43616d706169676e20646f6573206e6f74206578697374000000000000000000600082015250565b6000612696601783611d3c565b91506126a182612660565b602082019050919050565b600060208201905081810360008301526126c581612689565b9050919050565b7f546172676574206d7573742062652067726561746572207468616e2030000000600082015250565b6000612702601d83611d3c565b915061270d826126cc565b602082019050919050565b60006020820190508181036000830152612731816126f5565b9050919050565b60008190508160005260206000209050919050565b60006020601f8301049050919050565b600082821b905092915050565b60006008830261279a7fffffffffffffffffffffffffffffffffffffffffffffffffffffffffffffffff8261275d565b6127a4868361275d565b95508019841693508086168417925050509392505050565b6000819050919050565b60006127e16127dc6127d784611a6c565b6127bc565b611a6c565b9050919050565b6000819050919050565b6127fb836127c6565b61280f612807826127e8565b84845461276a565b825550505050565b600090565b612824612817565b61282f8184846127f2565b505050565b5b818110156128535761284860008261281c565b600181019050612835565b5050565b601f8211156128985761286981612738565b6128728461274d565b81016020851015612881578190505b61289561288d8561274d565b830182612834565b50505b505050565b600082821c905092915050565b60006128bb6000198460080261289d565b1980831691505092915050565b60006128d483836128aa565b9150826002028217905092915050565b6128ed82611d31565b67ffffffffffffffff81111561290657612905611ecb565b5b61291082546125c3565b61291b828285612857565b600060209050601f83116001811461294e576000841561293c578287015190505b61294685826128c8565b8655506129ae565b601f19841661295c86612738565b60005b828110156129845784890151825560018201915060208501945060208101905061295f565b868310156129a1578489015161299d601f8916826128aa565b8355505b6001600288020188555050505b505050505050565b7f446f6e6174696f6e206d7573742062652067726561746572207468616e203000600082015250565b60006129ec601f83611d3c565b91506129f7826129b6565b602082019050919050565b60006020820190508181036000830152612a1b816129df565b9050919050565b7f43616d706169676e206578706972656400000000000000000000000000000000600082015250565b6000612a58601083611d3c565b9150612a6382612a22565b602082019050919050565b60006020820190508181036000830152612a8781612a4b565b9050919050565b7f4e487b7100000000000000000000000000000000000000000000000000000000600052601160045260246000fd5b6000612ac882611a6c565b9150612ad383611a6c565b9250828201905080821115612aeb57612aea612a8e565b5b92915050565b600081905092915050565b50565b6000612b0c600083612af1565b9150612b1782612afc565b600082019050919050565b6000612b2d82612aff565b9150819050919050565b7f5472616e73666572206661696c65640000000000000000000000000000000000600082015250565b6000612b6d600f83611d3c565b9150612b7882612b37565b602082019050919050565b60006020820190508181036000830152612b9c81612b60565b9050919050565b6000604082019050612bb86000830185611a76565b612bc56020830184611a76565b9392505050565b6000606082019050612be16000830186611a76565b612bee6020830185611d22565b612bfb6040830184611a76565b949350505050565b7f4f6e6c7920636f6e7472616374206f776e657220616c6c6f7765640000000000600082015250565b6000612c39601b83611d3c565b9150612c4482612c03565b602082019050919050565b60006020820190508181036000830152612c6881612c2c565b9050919050565b6000604082019050612c846000830185611d22565b612c916020830184611d13565b9392505050565b7f4e487b7100000000000000000000000000000000000000000000000000000000600052603260045260246000fd5b7f446561646c696e65206d75737420626520696e20746865206675747572650000600082015250565b6000612cfd601e83611d3c565b9150612d0882612cc7565b602082019050919050565b60006020820190508181036000830152612d2c81612cf0565b9050919050565b6000606082019050612d486000830186611a76565b612d556020830185611d22565b8181036040830152612d678184611d88565b9050949350505050565b6000612d7c82611a6c565b91507fffffffffffffffffffffffffffffffffffffffffffffffffffffffffffffffff8203612dae57612dad612a8e565b5b600182019050919050565b6000612dc482611a6c565b9150612dcf83611a6c565b9250828203905081811115612de757612de6612a8e565b5b9291505056fea2646970667358221220ff2b8c5f2e68265efc20985617d0b66865fab0122905fbc34c715de1cdb5dc2764736f6c634300081c0033",
  "linkReferences": {},
  "deployedLinkReferences": {}
}